20170822-11:26:35.094 : 8=FIXT.1.1|9=98|35=A|34=1|49=DBL|50=SID|52=20170822-11:26:35.092|56=BME|57=TID|98=0|108=30|141=Y|1137=4|1408=T4.0|10=104|
20170822-11:28:41.116 : 8=FIXT.1.1|9=98|35=A|34=1|49=DBL|50=SID|52=20170822-11:28:41.110|56=BME|57=TID|98=0|108=30|141=Y|1137=4|1408=T4.0|10=094|
20170822-11:28:41.130 : 8=FIXT.1.1|9=98|35=A|49=BME|56=DBL|52=20170822-11:28:41.128|34=1|50=TID|57=SID|98=0|108=30|141=Y|1137=9|1408=T4.0|10=108|
20170822-11:28:47.513 : 8=FIXT.1.1|9=49|35=5|34=2|49=DBL|52=20170822-11:28:47.512|56=BME|10=216|
20170822-11:28:47.514 : 8=FIXT.1.1|9=63|35=5|49=BME|56=DBL|52=20170822-11:28:47.513|34=2|50=TID|57=SID|10=227|
20170822-11:31:25.845 : 8=FIXT.1.1|9=98|35=A|34=1|49=DBL|50=SID|52=20170822-11:31:25.844|56=BME|57=TID|98=0|108=30|141=Y|1137=4|1408=T4.0|10=104|
20170822-11:31:25.848 : 8=FIXT.1.1|9=98|35=A|49=BME|56=DBL|52=20170822-11:31:25.847|34=1|50=TID|57=SID|98=0|108=30|141=Y|1137=9|1408=T4.0|10=112|
20170822-11:31:28.332 : 8=FIXT.1.1|9=49|35=5|34=2|49=DBL|52=20170822-11:31:28.332|56=BME|10=209|
20170822-11:31:28.334 : 8=FIXT.1.1|9=63|35=5|49=BME|56=DBL|52=20170822-11:31:28.332|34=2|50=TID|57=SID|10=219|
20170822-11:31:33.244 : 8=FIXT.1.1|9=98|35=A|34=1|49=DBL|50=SID|52=20170822-11:31:33.242|56=BME|57=TID|98=0|108=30|141=Y|1137=4|1408=T4.0|10=095|
20170822-11:31:33.246 : 8=FIXT.1.1|9=98|35=A|49=BME|56=DBL|52=20170822-11:31:33.245|34=1|50=TID|57=SID|98=0|108=30|141=Y|1137=9|1408=T4.0|10=103|
20170822-11:31:39.603 : 8=FIXT.1.1|9=49|35=5|34=2|49=DBL|52=20170822-11:31:39.603|56=BME|10=212|
20170822-11:31:39.603 : 8=FIXT.1.1|9=63|35=5|49=BME|56=DBL|52=20170822-11:31:39.603|34=2|50=TID|57=SID|10=222|
20170822-11:35:32.460 : 8=FIXT.1.1|9=98|35=A|34=1|49=DBL|50=SID|52=20170822-11:35:32.458|56=BME|57=TID|98=0|108=30|141=Y|1137=4|1408=T4.0|10=107|
20170822-11:35:32.462 : 8=FIXT.1.1|9=98|35=A|49=BME|56=DBL|52=20170822-11:35:32.462|34=1|50=TID|57=SID|98=0|108=30|141=Y|1137=9|1408=T4.0|10=107|
20170822-11:35:40.081 : 8=FIXT.1.1|9=49|35=5|34=2|49=DBL|52=20170822-11:35:40.081|56=BME|10=208|
20170822-11:35:40.083 : 8=FIXT.1.1|9=63|35=5|49=BME|56=DBL|52=20170822-11:35:40.081|34=2|50=TID|57=SID|10=218|
20170822-11:35:43.087 : 8=FIXT.1.1|9=98|35=A|34=1|49=DBL|50=SID|52=20170822-11:35:43.085|56=BME|57=TID|98=0|108=30|141=Y|1137=4|1408=T4.0|10=105|
20170822-11:35:43.089 : 8=FIXT.1.1|9=98|35=A|49=BME|56=DBL|52=20170822-11:35:43.088|34=1|50=TID|57=SID|98=0|108=30|141=Y|1137=9|1408=T4.0|10=113|
20170822-11:35:45.410 : 8=FIXT.1.1|9=49|35=5|34=2|49=DBL|52=20170822-11:35:45.410|56=BME|10=209|
20170822-11:35:45.411 : 8=FIXT.1.1|9=63|35=5|49=BME|56=DBL|52=20170822-11:35:45.410|34=2|50=TID|57=SID|10=219|
20170822-11:35:50.555 : 8=FIXT.1.1|9=98|35=A|34=1|49=DBL|50=SID|52=20170822-11:35:50.552|56=BME|57=TID|98=0|108=30|141=Y|1137=4|1408=T4.0|10=102|
20170822-11:35:50.559 : 8=FIXT.1.1|9=98|35=A|49=BME|56=DBL|52=20170822-11:35:50.556|34=1|50=TID|57=SID|98=0|108=30|141=Y|1137=9|1408=T4.0|10=111|
20170822-11:55:48.820 : 8=FIXT.1.1|9=98|35=A|34=1|49=DBL|50=SID|52=20170822-11:55:48.819|56=BME|57=TID|98=0|108=30|141=Y|1137=4|1408=T4.0|10=117|
20170822-11:55:48.822 : 8=FIXT.1.1|9=98|35=A|49=BME|56=DBL|52=20170822-11:55:48.821|34=1|50=TID|57=SID|98=0|108=30|141=Y|1137=9|1408=T4.0|10=115|
20170822-11:56:28.413 : 8=FIXT.1.1|9=98|35=A|34=1|49=DBL|50=SID|52=20170822-11:56:28.412|56=BME|57=TID|98=0|108=30|141=Y|1137=4|1408=T4.0|10=105|
20170822-11:56:28.414 : 8=FIXT.1.1|9=98|35=A|49=BME|56=DBL|52=20170822-11:56:28.414|34=1|50=TID|57=SID|98=0|108=30|141=Y|1137=9|1408=T4.0|10=112|
20170822-11:57:27.154 : 8=FIXT.1.1|9=98|35=A|34=1|49=DBL|50=SID|52=20170822-11:57:27.153|56=BME|57=TID|98=0|108=30|141=Y|1137=4|1408=T4.0|10=107|
20170822-11:57:27.154 : 8=FIXT.1.1|9=98|35=A|49=BME|56=DBL|52=20170822-11:57:27.154|34=1|50=TID|57=SID|98=0|108=30|141=Y|1137=9|1408=T4.0|10=113|
20170822-11:57:57.981 : 8=FIXT.1.1|9=49|35=0|34=2|49=DBL|52=20170822-11:57:57.981|56=BME|10=224|
20170822-11:57:58.185 : 8=FIXT.1.1|9=63|35=0|49=BME|56=DBL|52=20170822-11:57:58.185|34=2|50=TID|57=SID|10=231|
20170822-12:00:45.951 : 8=FIXT.1.1|9=98|35=A|34=1|49=DBL|50=SID|52=20170822-12:00:45.948|56=BME|57=TID|98=0|108=30|141=Y|1137=4|1408=T4.0|10=108|
20170822-12:00:45.952 : 8=FIXT.1.1|9=98|35=A|49=BME|56=DBL|52=20170822-12:00:45.952|34=1|50=TID|57=SID|98=0|108=30|141=Y|1137=9|1408=T4.0|10=108|
20170822-12:01:15.019 : 8=FIXT.1.1|9=49|35=0|34=2|49=DBL|52=20170822-12:01:15.018|56=BME|10=199|
20170822-12:01:16.979 : 8=FIXT.1.1|9=63|35=0|49=BME|56=DBL|52=20170822-12:01:16.979|34=2|50=TID|57=SID|10=226|
20170822-13:05:20.739 : 8=FIXT.1.1|9=98|35=A|34=1|49=DBL|50=SID|52=20170822-13:05:20.738|56=BME|57=TID|98=0|108=30|141=Y|1137=4|1408=T4.0|10=104|
20170822-13:05:20.741 : 8=FIXT.1.1|9=98|35=A|49=BME|56=DBL|52=20170822-13:05:20.740|34=1|50=TID|57=SID|98=0|108=30|141=Y|1137=9|1408=T4.0|10=102|
20170822-13:05:50.114 : 8=FIXT.1.1|9=49|35=0|34=2|49=DBL|52=20170822-13:05:50.114|56=BME|10=200|
20170822-13:05:51.775 : 8=FIXT.1.1|9=63|35=0|49=BME|56=DBL|52=20170822-13:05:51.774|34=2|50=TID|57=SID|10=223|
20170822-13:06:20.775 : 8=FIXT.1.1|9=49|35=0|34=3|49=DBL|52=20170822-13:06:20.775|56=BME|10=212|
20170822-13:06:22.804 : 8=FIXT.1.1|9=63|35=0|49=BME|56=DBL|52=20170822-13:06:22.804|34=3|50=TID|57=SID|10=217|
20170822-13:08:12.580 : 8=FIXT.1.1|9=98|35=A|34=1|49=DBL|50=SID|52=20170822-13:08:12.577|56=BME|57=TID|98=0|108=30|141=Y|1137=4|1408=T4.0|10=109|
20170822-13:08:12.582 : 8=FIXT.1.1|9=98|35=A|49=BME|56=DBL|52=20170822-13:08:12.580|34=1|50=TID|57=SID|98=0|108=30|141=Y|1137=9|1408=T4.0|10=108|
20170822-13:08:42.031 : 8=FIXT.1.1|9=49|35=0|34=2|49=DBL|52=20170822-13:08:42.031|56=BME|10=202|
20170822-13:08:43.607 : 8=FIXT.1.1|9=63|35=0|49=BME|56=DBL|52=20170822-13:08:43.607|34=2|50=TID|57=SID|10=222|
20170822-13:09:12.092 : 8=FIXT.1.1|9=49|35=0|34=3|49=DBL|52=20170822-13:09:12.092|56=BME|10=208|
20170822-13:09:14.635 : 8=FIXT.1.1|9=63|35=0|49=BME|56=DBL|52=20170822-13:09:14.635|34=3|50=TID|57=SID|10=223|
20170822-13:09:42.354 : 8=FIXT.1.1|9=49|35=0|34=4|49=DBL|52=20170822-13:09:42.354|56=BME|10=213|
20170822-13:09:45.661 : 8=FIXT.1.1|9=63|35=0|49=BME|56=DBL|52=20170822-13:09:45.661|34=4|50=TID|57=SID|10=227|
20170822-13:10:12.023 : 8=FIXT.1.1|9=49|35=0|34=5|49=DBL|52=20170822-13:10:12.023|56=BME|10=196|
20170822-13:10:16.686 : 8=FIXT.1.1|9=63|35=0|49=BME|56=DBL|52=20170822-13:10:16.686|34=5|50=TID|57=SID|10=225|
20170822-13:10:42.506 : 8=FIXT.1.1|9=49|35=0|34=6|49=DBL|52=20170822-13:10:42.505|56=BME|10=205|
20170822-13:10:47.717 : 8=FIXT.1.1|9=63|35=0|49=BME|56=DBL|52=20170822-13:10:47.717|34=6|50=TID|57=SID|10=225|
20170822-13:11:12.116 : 8=FIXT.1.1|9=49|35=0|34=7|49=DBL|52=20170822-13:11:12.112|56=BME|10=198|
20170822-13:11:18.747 : 8=FIXT.1.1|9=63|35=0|49=BME|56=DBL|52=20170822-13:11:18.747|34=7|50=TID|57=SID|10=228|
20170822-13:17:25.414 : 8=FIXT.1.1|9=98|35=A|34=1|49=DBL|50=SID|52=20170822-13:17:25.412|56=BME|57=TID|98=0|108=30|141=Y|1137=4|1408=T4.0|10=101|
20170822-13:17:25.415 : 8=FIXT.1.1|9=98|35=A|49=BME|56=DBL|52=20170822-13:17:25.414|34=1|50=TID|57=SID|98=0|108=30|141=Y|1137=9|1408=T4.0|10=108|
20170822-13:17:55.621 : 8=FIXT.1.1|9=49|35=0|34=2|49=DBL|52=20170822-13:17:55.600|56=BME|10=208|
20170822-13:17:56.448 : 8=FIXT.1.1|9=63|35=0|49=BME|56=DBL|52=20170822-13:17:56.448|34=2|50=TID|57=SID|10=229|
20170822-13:18:25.825 : 8=FIXT.1.1|9=98|35=A|34=1|49=DBL|50=SID|52=20170822-13:18:25.824|56=BME|57=TID|98=0|108=30|141=Y|1137=4|1408=T4.0|10=109|
20170822-13:18:25.826 : 8=FIXT.1.1|9=98|35=A|49=BME|56=DBL|52=20170822-13:18:25.826|34=1|50=TID|57=SID|98=0|108=30|141=Y|1137=9|1408=T4.0|10=116|
20170822-13:18:55.372 : 8=FIXT.1.1|9=49|35=0|34=2|49=DBL|52=20170822-13:18:55.372|56=BME|10=215|
20170822-13:18:56.858 : 8=FIXT.1.1|9=63|35=0|49=BME|56=DBL|52=20170822-13:18:56.857|34=2|50=TID|57=SID|10=234|
20170822-13:19:25.448 : 8=FIXT.1.1|9=49|35=0|34=3|49=DBL|52=20170822-13:19:25.448|56=BME|10=218|
20170822-13:19:27.887 : 8=FIXT.1.1|9=63|35=0|49=BME|56=DBL|52=20170822-13:19:27.887|34=3|50=TID|57=SID|10=237|
20170822-13:22:17.421 : 8=FIXT.1.1|9=98|35=A|34=1|49=DBL|50=SID|52=20170822-13:22:17.419|56=BME|57=TID|98=0|108=30|141=Y|1137=4|1408=T4.0|10=105|
20170822-13:22:17.422 : 8=FIXT.1.1|9=98|35=A|49=BME|56=DBL|52=20170822-13:22:17.422|34=1|50=TID|57=SID|98=0|108=30|141=Y|1137=9|1408=T4.0|10=104|
20170822-13:22:47.798 : 8=FIXT.1.1|9=49|35=0|34=2|49=DBL|52=20170822-13:22:47.798|56=BME|10=223|
20170822-13:22:48.452 : 8=FIXT.1.1|9=63|35=0|49=BME|56=DBL|52=20170822-13:22:48.452|34=2|50=TID|57=SID|10=221|
20170822-13:23:17.674 : 8=FIXT.1.1|9=49|35=0|34=3|49=DBL|52=20170822-13:23:17.674|56=BME|10=215|
20170822-13:23:19.485 : 8=FIXT.1.1|9=63|35=0|49=BME|56=DBL|52=20170822-13:23:19.485|34=3|50=TID|57=SID|10=227|
20170822-13:23:47.677 : 8=FIXT.1.1|9=49|35=0|34=4|49=DBL|52=20170822-13:23:47.677|56=BME|10=222|
20170822-13:23:50.514 : 8=FIXT.1.1|9=63|35=0|49=BME|56=DBL|52=20170822-13:23:50.513|34=4|50=TID|57=SID|10=215|
20170822-13:24:17.291 : 8=FIXT.1.1|9=49|35=0|34=5|49=DBL|52=20170822-13:24:17.291|56=BME|10=213|
20170822-13:24:21.544 : 8=FIXT.1.1|9=63|35=0|49=BME|56=DBL|52=20170822-13:24:21.544|34=5|50=TID|57=SID|10=219|
20170822-13:24:53.901 : 8=FIXT.1.1|9=98|35=A|34=1|49=DBL|50=SID|52=20170822-13:24:53.900|56=BME|57=TID|98=0|108=30|141=Y|1137=4|1408=T4.0|10=102|
20170822-13:24:53.902 : 8=FIXT.1.1|9=98|35=A|49=BME|56=DBL|52=20170822-13:24:53.901|34=1|50=TID|57=SID|98=0|108=30|141=Y|1137=9|1408=T4.0|10=108|
20170822-13:42:27.288 : 8=FIXT.1.1|9=98|35=A|34=1|49=DBL|50=SID|52=20170822-13:42:27.285|56=BME|57=TID|98=0|108=30|141=Y|1137=4|1408=T4.0|10=109|
20170822-13:42:27.289 : 8=FIXT.1.1|9=98|35=A|49=BME|56=DBL|52=20170822-13:42:27.289|34=1|50=TID|57=SID|98=0|108=30|141=Y|1137=9|1408=T4.0|10=118|
20170822-13:42:57.156 : 8=FIXT.1.1|9=49|35=0|34=2|49=DBL|52=20170822-13:42:57.156|56=BME|10=214|
20170822-13:42:58.319 : 8=FIXT.1.1|9=63|35=0|49=BME|56=DBL|52=20170822-13:42:58.319|34=2|50=TID|57=SID|10=226|
20170822-13:43:27.538 : 8=FIXT.1.1|9=49|35=0|34=3|49=DBL|52=20170822-13:43:27.538|56=BME|10=217|
20170822-13:43:29.350 : 8=FIXT.1.1|9=63|35=0|49=BME|56=DBL|52=20170822-13:43:29.350|34=3|50=TID|57=SID|10=221|
20170822-13:43:57.283 : 8=FIXT.1.1|9=49|35=0|34=4|49=DBL|52=20170822-13:43:57.283|56=BME|10=218|
20170822-13:44:00.378 : 8=FIXT.1.1|9=63|35=0|49=BME|56=DBL|52=20170822-13:44:00.378|34=4|50=TID|57=SID|10=222|
20170822-13:44:18.550 : 8=FIXT.1.1|9=49|35=5|34=5|49=DBL|52=20170822-13:44:18.550|56=BME|10=219|
20170822-13:44:18.550 : 8=FIXT.1.1|9=63|35=5|49=BME|56=DBL|52=20170822-13:44:18.550|34=5|50=TID|57=SID|10=229|
20170822-13:44:25.080 : 8=FIXT.1.1|9=98|35=A|34=1|49=DBL|50=SID|52=20170822-13:44:25.080|56=BME|57=TID|98=0|108=30|141=Y|1137=4|1408=T4.0|10=102|
20170822-13:44:25.081 : 8=FIXT.1.1|9=98|35=A|49=BME|56=DBL|52=20170822-13:44:25.081|34=1|50=TID|57=SID|98=0|108=30|141=Y|1137=9|1408=T4.0|10=108|
20170822-13:44:32.457 : 8=FIXT.1.1|9=49|35=5|34=2|49=DBL|52=20170822-13:44:32.457|56=BME|10=218|
20170822-13:44:32.457 : 8=FIXT.1.1|9=63|35=5|49=BME|56=DBL|52=20170822-13:44:32.457|34=2|50=TID|57=SID|10=228|
20170822-13:44:42.583 : 8=FIXT.1.1|9=98|35=A|34=1|49=DBL|50=SID|52=20170822-13:44:42.583|56=BME|57=TID|98=0|108=30|141=Y|1137=4|1408=T4.0|10=109|
20170822-13:44:42.584 : 8=FIXT.1.1|9=98|35=A|49=BME|56=DBL|52=20170822-13:44:42.584|34=1|50=TID|57=SID|98=0|108=30|141=Y|1137=9|1408=T4.0|10=115|
20170822-13:44:54.095 : 8=FIXT.1.1|9=49|35=5|34=2|49=DBL|52=20170822-13:44:54.094|56=BME|10=219|
20170822-13:44:54.096 : 8=FIXT.1.1|9=63|35=5|49=BME|56=DBL|52=20170822-13:44:54.095|34=2|50=TID|57=SID|10=230|
20170822-13:45:06.783 : 8=FIXT.1.1|9=98|35=A|34=1|49=DBL|50=SID|52=20170822-13:45:06.781|56=BME|57=TID|98=0|108=30|141=Y|1137=4|1408=T4.0|10=110|
20170822-13:45:06.784 : 8=FIXT.1.1|9=98|35=A|49=BME|56=DBL|52=20170822-13:45:06.784|34=1|50=TID|57=SID|98=0|108=30|141=Y|1137=9|1408=T4.0|10=118|
20170822-13:45:13.175 : 8=FIXT.1.1|9=49|35=5|34=2|49=DBL|52=20170822-13:45:13.175|56=BME|10=215|
20170822-13:45:13.176 : 8=FIXT.1.1|9=63|35=5|49=BME|56=DBL|52=20170822-13:45:13.175|34=2|50=TID|57=SID|10=225|
20170822-13:46:15.893 : 8=FIXT.1.1|9=98|35=A|34=1|49=DBL|50=SID|52=20170822-13:46:15.892|56=BME|57=TID|98=0|108=30|141=Y|1137=4|1408=T4.0|10=114|
20170822-13:46:15.894 : 8=FIXT.1.1|9=98|35=A|49=BME|56=DBL|52=20170822-13:46:15.893|34=1|50=TID|57=SID|98=0|108=30|141=Y|1137=9|1408=T4.0|10=120|
20170822-13:46:33.702 : 8=FIXT.1.1|9=49|35=5|34=2|49=DBL|52=20170822-13:46:33.702|56=BME|10=214|
20170822-13:46:33.704 : 8=FIXT.1.1|9=63|35=5|49=BME|56=DBL|52=20170822-13:46:33.702|34=2|50=TID|57=SID|10=224|
20170822-13:46:37.822 : 8=FIXT.1.1|9=98|35=A|34=1|49=DBL|50=SID|52=20170822-13:46:37.822|56=BME|57=TID|98=0|108=30|141=Y|1137=4|1408=T4.0|10=111|
20170822-13:46:37.823 : 8=FIXT.1.1|9=98|35=A|49=BME|56=DBL|52=20170822-13:46:37.823|34=1|50=TID|57=SID|98=0|108=30|141=Y|1137=9|1408=T4.0|10=117|
20170822-13:47:31.040 : 8=FIXT.1.1|9=98|35=A|34=1|49=DBL|50=SID|52=20170822-13:47:31.039|56=BME|57=TID|98=0|108=30|141=Y|1137=4|1408=T4.0|10=106|
20170822-13:47:31.040 : 8=FIXT.1.1|9=98|35=A|49=BME|56=DBL|52=20170822-13:47:31.040|34=1|50=TID|57=SID|98=0|108=30|141=Y|1137=9|1408=T4.0|10=103|
20170822-13:47:43.099 : 8=FIXT.1.1|9=49|35=5|34=2|49=DBL|52=20170822-13:47:43.098|56=BME|10=224|
20170822-13:47:43.100 : 8=FIXT.1.1|9=63|35=5|49=BME|56=DBL|52=20170822-13:47:43.099|34=2|50=TID|57=SID|10=235|
20170822-13:47:47.012 : 8=FIXT.1.1|9=98|35=A|34=1|49=DBL|50=SID|52=20170822-13:47:47.012|56=BME|57=TID|98=0|108=30|141=Y|1137=4|1408=T4.0|10=104|
20170822-13:47:47.013 : 8=FIXT.1.1|9=98|35=A|49=BME|56=DBL|52=20170822-13:47:47.013|34=1|50=TID|57=SID|98=0|108=30|141=Y|1137=9|1408=T4.0|10=110|
20170822-13:47:51.427 : 8=FIXT.1.1|9=49|35=5|34=2|49=DBL|52=20170822-13:47:51.427|56=BME|10=219|
20170822-13:47:51.429 : 8=FIXT.1.1|9=63|35=5|49=BME|56=DBL|52=20170822-13:47:51.428|34=2|50=TID|57=SID|10=230|
20170822-13:48:37.457 : 8=FIXT.1.1|9=98|35=A|34=1|49=DBL|50=SID|52=20170822-13:48:37.451|56=BME|57=TID|98=0|108=30|141=Y|1137=4|1408=T4.0|10=111|
20170822-13:48:37.478 : 8=FIXT.1.1|9=98|35=A|49=BME|56=DBL|52=20170822-13:48:37.476|34=1|50=TID|57=SID|98=0|108=30|141=Y|1137=9|1408=T4.0|10=123|
20170822-13:48:41.108 : 8=FIXT.1.1|9=49|35=5|34=2|49=DBL|52=20170822-13:48:41.108|56=BME|10=215|
20170822-13:48:41.110 : 8=FIXT.1.1|9=63|35=5|49=BME|56=DBL|52=20170822-13:48:41.109|34=2|50=TID|57=SID|10=226|
20170822-13:48:43.536 : 8=FIXT.1.1|9=98|35=A|34=1|49=DBL|50=SID|52=20170822-13:48:43.536|56=BME|57=TID|98=0|108=30|141=Y|1137=4|1408=T4.0|10=112|
20170822-13:48:43.539 : 8=FIXT.1.1|9=98|35=A|49=BME|56=DBL|52=20170822-13:48:43.537|34=1|50=TID|57=SID|98=0|108=30|141=Y|1137=9|1408=T4.0|10=118|
20170822-13:48:46.048 : 8=FIXT.1.1|9=49|35=5|34=2|49=DBL|52=20170822-13:48:46.048|56=BME|10=223|
20170822-13:48:46.048 : 8=FIXT.1.1|9=63|35=5|49=BME|56=DBL|52=20170822-13:48:46.048|34=2|50=TID|57=SID|10=233|
20170822-13:48:47.689 : 8=FIXT.1.1|9=98|35=A|34=1|49=DBL|50=SID|52=20170822-13:48:47.687|56=BME|57=TID|98=0|108=30|141=Y|1137=4|1408=T4.0|10=123|
20170822-13:48:47.694 : 8=FIXT.1.1|9=98|35=A|49=BME|56=DBL|52=20170822-13:48:47.691|34=1|50=TID|57=SID|98=0|108=30|141=Y|1137=9|1408=T4.0|10=123|
20170822-13:48:50.006 : 8=FIXT.1.1|9=49|35=5|34=2|49=DBL|52=20170822-13:48:50.006|56=BME|10=212|
20170822-13:48:50.006 : 8=FIXT.1.1|9=63|35=5|49=BME|56=DBL|52=20170822-13:48:50.006|34=2|50=TID|57=SID|10=222|
20170822-13:49:17.344 : 8=FIXT.1.1|9=98|35=A|34=1|49=DBL|50=SID|52=20170822-13:49:17.344|56=BME|57=TID|98=0|108=30|141=Y|1137=4|1408=T4.0|10=111|
20170822-13:49:17.348 : 8=FIXT.1.1|9=98|35=A|49=BME|56=DBL|52=20170822-13:49:17.346|34=1|50=TID|57=SID|98=0|108=30|141=Y|1137=9|1408=T4.0|10=118|
20170822-13:49:47.280 : 8=FIXT.1.1|9=49|35=0|34=2|49=DBL|52=20170822-13:49:47.280|56=BME|10=218|
20170822-13:49:48.375 : 8=FIXT.1.1|9=63|35=0|49=BME|56=DBL|52=20170822-13:49:48.375|34=2|50=TID|57=SID|10=234|
20170822-13:50:17.107 : 8=FIXT.1.1|9=49|35=0|34=3|49=DBL|52=20170822-13:50:17.105|56=BME|10=204|
20170822-13:50:19.405 : 8=FIXT.1.1|9=63|35=0|49=BME|56=DBL|52=20170822-13:50:19.405|34=3|50=TID|57=SID|10=219|
20170822-13:50:32.750 : 8=FIXT.1.1|9=49|35=5|34=4|49=DBL|52=20170822-13:50:32.750|56=BME|10=213|
20170822-13:50:32.750 : 8=FIXT.1.1|9=63|35=5|49=BME|56=DBL|52=20170822-13:50:32.750|34=4|50=TID|57=SID|10=223|
20170822-13:50:34.829 : 8=FIXT.1.1|9=98|35=A|34=1|49=DBL|50=SID|52=20170822-13:50:34.828|56=BME|57=TID|98=0|108=30|141=Y|1137=4|1408=T4.0|10=109|
20170822-13:50:34.829 : 8=FIXT.1.1|9=98|35=A|49=BME|56=DBL|52=20170822-13:50:34.829|34=1|50=TID|57=SID|98=0|108=30|141=Y|1137=9|1408=T4.0|10=115|
20170822-13:50:37.087 : 8=FIXT.1.1|9=49|35=5|34=2|49=DBL|52=20170822-13:50:37.087|56=BME|10=219|
20170822-13:50:37.088 : 8=FIXT.1.1|9=63|35=5|49=BME|56=DBL|52=20170822-13:50:37.087|34=2|50=TID|57=SID|10=229|
20170822-13:50:38.918 : 8=FIXT.1.1|9=98|35=A|34=1|49=DBL|50=SID|52=20170822-13:50:38.915|56=BME|57=TID|98=0|108=30|141=Y|1137=4|1408=T4.0|10=110|
20170822-13:50:38.918 : 8=FIXT.1.1|9=98|35=A|49=BME|56=DBL|52=20170822-13:50:38.918|34=1|50=TID|57=SID|98=0|108=30|141=Y|1137=9|1408=T4.0|10=118|
20170822-13:50:44.963 : 8=FIXT.1.1|9=49|35=5|34=2|49=DBL|52=20170822-13:50:44.963|56=BME|10=220|
20170822-13:50:44.965 : 8=FIXT.1.1|9=63|35=5|49=BME|56=DBL|52=20170822-13:50:44.964|34=2|50=TID|57=SID|10=231|
20170822-13:51:08.866 : 8=FIXT.1.1|9=98|35=A|34=1|49=DBL|50=SID|52=20170822-13:51:08.846|56=BME|57=TID|98=0|108=30|141=Y|1137=4|1408=T4.0|10=111|
20170822-13:51:08.870 : 8=FIXT.1.1|9=98|35=A|49=BME|56=DBL|52=20170822-13:51:08.869|34=1|50=TID|57=SID|98=0|108=30|141=Y|1137=9|1408=T4.0|10=121|
20170822-13:51:10.736 : 8=FIXT.1.1|9=49|35=5|34=2|49=DBL|52=20170822-13:51:10.736|56=BME|10=212|
20170822-13:51:10.736 : 8=FIXT.1.1|9=63|35=5|49=BME|56=DBL|52=20170822-13:51:10.736|34=2|50=TID|57=SID|10=222|
20170822-13:51:13.155 : 8=FIXT.1.1|9=98|35=A|34=1|49=DBL|50=SID|52=20170822-13:51:13.151|56=BME|57=TID|98=0|108=30|141=Y|1137=4|1408=T4.0|10=096|
20170822-13:51:13.156 : 8=FIXT.1.1|9=98|35=A|49=BME|56=DBL|52=20170822-13:51:13.155|34=1|50=TID|57=SID|98=0|108=30|141=Y|1137=9|1408=T4.0|10=105|
20170822-13:51:15.028 : 8=FIXT.1.1|9=49|35=5|34=2|49=DBL|52=20170822-13:51:15.027|56=BME|10=210|
20170822-13:51:15.028 : 8=FIXT.1.1|9=63|35=5|49=BME|56=DBL|52=20170822-13:51:15.028|34=2|50=TID|57=SID|10=221|
20170822-13:51:18.102 : 8=FIXT.1.1|9=98|35=A|34=1|49=DBL|50=SID|52=20170822-13:51:18.086|56=BME|57=TID|98=0|108=30|141=Y|1137=4|1408=T4.0|10=108|
20170822-13:51:18.104 : 8=FIXT.1.1|9=98|35=A|49=BME|56=DBL|52=20170822-13:51:18.103|34=1|50=TID|57=SID|98=0|108=30|141=Y|1137=9|1408=T4.0|10=103|
20170822-13:51:22.105 : 8=FIXT.1.1|9=49|35=5|34=2|49=DBL|52=20170822-13:51:22.105|56=BME|10=205|
20170822-13:51:22.105 : 8=FIXT.1.1|9=63|35=5|49=BME|56=DBL|52=20170822-13:51:22.105|34=2|50=TID|57=SID|10=215|
20170822-13:51:24.797 : 8=FIXT.1.1|9=98|35=A|34=1|49=DBL|50=SID|52=20170822-13:51:24.786|56=BME|57=TID|98=0|108=30|141=Y|1137=4|1408=T4.0|10=112|
20170822-13:51:24.799 : 8=FIXT.1.1|9=98|35=A|49=BME|56=DBL|52=20170822-13:51:24.798|34=1|50=TID|57=SID|98=0|108=30|141=Y|1137=9|1408=T4.0|10=120|
20170822-13:51:26.679 : 8=FIXT.1.1|9=49|35=5|34=2|49=DBL|52=20170822-13:51:26.679|56=BME|10=225|
20170822-13:51:26.680 : 8=FIXT.1.1|9=63|35=5|49=BME|56=DBL|52=20170822-13:51:26.679|34=2|50=TID|57=SID|10=235|
20170822-13:51:28.779 : 8=FIXT.1.1|9=98|35=A|34=1|49=DBL|50=SID|52=20170822-13:51:28.764|56=BME|57=TID|98=0|108=30|141=Y|1137=4|1408=T4.0|10=112|
20170822-13:51:28.780 : 8=FIXT.1.1|9=98|35=A|49=BME|56=DBL|52=20170822-13:51:28.779|34=1|50=TID|57=SID|98=0|108=30|141=Y|1137=9|1408=T4.0|10=123|
20170822-13:51:30.656 : 8=FIXT.1.1|9=49|35=5|34=2|49=DBL|52=20170822-13:51:30.656|56=BME|10=215|
20170822-13:51:30.657 : 8=FIXT.1.1|9=63|35=5|49=BME|56=DBL|52=20170822-13:51:30.657|34=2|50=TID|57=SID|10=226|
20170822-13:51:32.558 : 8=FIXT.1.1|9=98|35=A|34=1|49=DBL|50=SID|52=20170822-13:51:32.550|56=BME|57=TID|98=0|108=30|141=Y|1137=4|1408=T4.0|10=100|
20170822-13:51:32.561 : 8=FIXT.1.1|9=98|35=A|49=BME|56=DBL|52=20170822-13:51:32.559|34=1|50=TID|57=SID|98=0|108=30|141=Y|1137=9|1408=T4.0|10=114|
20170822-13:51:34.426 : 8=FIXT.1.1|9=49|35=5|34=2|49=DBL|52=20170822-13:51:34.425|56=BME|10=213|
20170822-13:51:34.426 : 8=FIXT.1.1|9=63|35=5|49=BME|56=DBL|52=20170822-13:51:34.426|34=2|50=TID|57=SID|10=224|
20170822-13:51:39.725 : 8=FIXT.1.1|9=98|35=A|34=1|49=DBL|50=SID|52=20170822-13:51:39.718|56=BME|57=TID|98=0|108=30|141=Y|1137=4|1408=T4.0|10=113|
20170822-13:51:39.726 : 8=FIXT.1.1|9=98|35=A|49=BME|56=DBL|52=20170822-13:51:39.726|34=1|50=TID|57=SID|98=0|108=30|141=Y|1137=9|1408=T4.0|10=117|
20170822-13:51:41.591 : 8=FIXT.1.1|9=49|35=5|34=2|49=DBL|52=20170822-13:51:41.591|56=BME|10=215|
20170822-13:51:41.591 : 8=FIXT.1.1|9=63|35=5|49=BME|56=DBL|52=20170822-13:51:41.591|34=2|50=TID|57=SID|10=225|
20170822-13:51:43.578 : 8=FIXT.1.1|9=98|35=A|34=1|49=DBL|50=SID|52=20170822-13:51:43.574|56=BME|57=TID|98=0|108=30|141=Y|1137=4|1408=T4.0|10=108|
20170822-13:51:43.580 : 8=FIXT.1.1|9=98|35=A|49=BME|56=DBL|52=20170822-13:51:43.579|34=1|50=TID|57=SID|98=0|108=30|141=Y|1137=9|1408=T4.0|10=118|
20170822-13:51:47.116 : 8=FIXT.1.1|9=49|35=5|34=2|49=DBL|52=20170822-13:51:47.116|56=BME|10=214|
20170822-13:51:47.116 : 8=FIXT.1.1|9=63|35=5|49=BME|56=DBL|52=20170822-13:51:47.116|34=2|50=TID|57=SID|10=224|
20170822-13:53:20.495 : 8=FIXT.1.1|9=98|35=A|34=1|49=DBL|50=SID|52=20170822-13:53:20.489|56=BME|57=TID|98=0|108=30|141=Y|1137=4|1408=T4.0|10=110|
20170822-13:53:20.583 : 8=FIXT.1.1|9=98|35=A|49=BME|56=DBL|52=20170822-13:53:20.577|34=1|50=TID|57=SID|98=0|108=30|141=Y|1137=9|1408=T4.0|10=113|
20170822-13:53:24.700 : 8=FIXT.1.1|9=49|35=5|34=2|49=DBL|52=20170822-13:53:24.695|56=BME|10=223|
20170822-13:53:24.703 : 8=FIXT.1.1|9=63|35=5|49=BME|56=DBL|52=20170822-13:53:24.702|34=2|50=TID|57=SID|10=222|
20170822-13:53:27.025 : 8=FIXT.1.1|9=98|35=A|34=1|49=DBL|50=SID|52=20170822-13:53:27.024|56=BME|57=TID|98=0|108=30|141=Y|1137=4|1408=T4.0|10=102|
20170822-13:53:27.027 : 8=FIXT.1.1|9=98|35=A|49=BME|56=DBL|52=20170822-13:53:27.026|34=1|50=TID|57=SID|98=0|108=30|141=Y|1137=9|1408=T4.0|10=109|
20170822-13:53:28.837 : 8=FIXT.1.1|9=49|35=5|34=2|49=DBL|52=20170822-13:53:28.837|56=BME|10=225|
20170822-13:53:28.838 : 8=FIXT.1.1|9=63|35=5|49=BME|56=DBL|52=20170822-13:53:28.837|34=2|50=TID|57=SID|10=235|
20170822-13:53:31.215 : 8=FIXT.1.1|9=98|35=A|34=1|49=DBL|50=SID|52=20170822-13:53:31.208|56=BME|57=TID|98=0|108=30|141=Y|1137=4|1408=T4.0|10=101|
20170822-13:53:31.219 : 8=FIXT.1.1|9=98|35=A|49=BME|56=DBL|52=20170822-13:53:31.216|34=1|50=TID|57=SID|98=0|108=30|141=Y|1137=9|1408=T4.0|10=105|
20170822-13:53:33.088 : 8=FIXT.1.1|9=49|35=5|34=2|49=DBL|52=20170822-13:53:33.088|56=BME|10=219|
20170822-13:53:33.089 : 8=FIXT.1.1|9=63|35=5|49=BME|56=DBL|52=20170822-13:53:33.088|34=2|50=TID|57=SID|10=229|
20170822-13:53:35.013 : 8=FIXT.1.1|9=98|35=A|34=1|49=DBL|50=SID|52=20170822-13:53:35.001|56=BME|57=TID|98=0|108=30|141=Y|1137=4|1408=T4.0|10=096|
20170822-13:53:35.019 : 8=FIXT.1.1|9=98|35=A|49=BME|56=DBL|52=20170822-13:53:35.016|34=1|50=TID|57=SID|98=0|108=30|141=Y|1137=9|1408=T4.0|10=107|
20170822-13:53:36.861 : 8=FIXT.1.1|9=49|35=5|34=2|49=DBL|52=20170822-13:53:36.861|56=BME|10=221|
20170822-13:53:36.862 : 8=FIXT.1.1|9=63|35=5|49=BME|56=DBL|52=20170822-13:53:36.862|34=2|50=TID|57=SID|10=232|
20170822-13:53:43.591 : 8=FIXT.1.1|9=98|35=A|34=1|49=DBL|50=SID|52=20170822-13:53:43.590|56=BME|57=TID|98=0|108=30|141=Y|1137=4|1408=T4.0|10=108|
20170822-13:53:43.594 : 8=FIXT.1.1|9=98|35=A|49=BME|56=DBL|52=20170822-13:53:43.593|34=1|50=TID|57=SID|98=0|108=30|141=Y|1137=9|1408=T4.0|10=116|
20170822-13:53:46.716 : 8=FIXT.1.1|9=49|35=5|34=2|49=DBL|52=20170822-13:53:46.716|56=BME|10=221|
20170822-13:53:46.716 : 8=FIXT.1.1|9=63|35=5|49=BME|56=DBL|52=20170822-13:53:46.716|34=2|50=TID|57=SID|10=231|
20170822-13:53:48.628 : 8=FIXT.1.1|9=98|35=A|34=1|49=DBL|50=SID|52=20170822-13:53:48.623|56=BME|57=TID|98=0|108=30|141=Y|1137=4|1408=T4.0|10=110|
20170822-13:53:48.630 : 8=FIXT.1.1|9=98|35=A|49=BME|56=DBL|52=20170822-13:53:48.629|34=1|50=TID|57=SID|98=0|108=30|141=Y|1137=9|1408=T4.0|10=121|
20170822-13:53:50.506 : 8=FIXT.1.1|9=49|35=5|34=2|49=DBL|52=20170822-13:53:50.506|56=BME|10=213|
20170822-13:53:50.507 : 8=FIXT.1.1|9=63|35=5|49=BME|56=DBL|52=20170822-13:53:50.506|34=2|50=TID|57=SID|10=223|
20170822-13:53:52.733 : 8=FIXT.1.1|9=98|35=A|34=1|49=DBL|50=SID|52=20170822-13:53:52.727|56=BME|57=TID|98=0|108=30|141=Y|1137=4|1408=T4.0|10=110|
20170822-13:53:52.736 : 8=FIXT.1.1|9=98|35=A|49=BME|56=DBL|52=20170822-13:53:52.734|34=1|50=TID|57=SID|98=0|108=30|141=Y|1137=9|1408=T4.0|10=113|
20170822-13:54:22.400 : 8=FIXT.1.1|9=49|35=0|34=2|49=DBL|52=20170822-13:54:22.376|56=BME|10=213|
20170822-13:54:23.768 : 8=FIXT.1.1|9=63|35=0|49=BME|56=DBL|52=20170822-13:54:23.767|34=2|50=TID|57=SID|10=228|
20170822-13:54:52.074 : 8=FIXT.1.1|9=49|35=0|34=3|49=DBL|52=20170822-13:54:52.071|56=BME|10=209|
20170822-13:54:54.800 : 8=FIXT.1.1|9=63|35=0|49=BME|56=DBL|52=20170822-13:54:54.800|34=3|50=TID|57=SID|10=221|
20170822-13:56:49.306 : 8=FIXT.1.1|9=98|35=A|34=1|49=DBL|50=SID|52=20170822-13:56:49.287|56=BME|57=TID|98=0|108=30|141=Y|1137=4|1408=T4.0|10=120|
20170822-13:56:49.346 : 8=FIXT.1.1|9=98|35=A|49=BME|56=DBL|52=20170822-13:56:49.345|34=1|50=TID|57=SID|98=0|108=30|141=Y|1137=9|1408=T4.0|10=120|
20170822-13:57:19.928 : 8=FIXT.1.1|9=49|35=0|34=2|49=DBL|52=20170822-13:57:19.908|56=BME|10=223|
20170822-13:57:20.390 : 8=FIXT.1.1|9=63|35=0|49=BME|56=DBL|52=20170822-13:57:20.381|34=2|50=TID|57=SID|10=220|
20170822-14:02:35.189 : 8=FIXT.1.1|9=98|35=A|34=1|49=DBL|50=SID|52=20170822-14:02:34.890|56=BME|57=TID|98=0|108=30|141=Y|1137=4|1408=T4.0|10=106|
20170822-14:02:35.408 : 8=FIXT.1.1|9=98|35=A|49=BME|56=DBL|52=20170822-14:02:35.396|34=1|50=TID|57=SID|98=0|108=30|141=Y|1137=9|1408=T4.0|10=113|
20170822-14:02:42.530 : 8=FIXT.1.1|9=49|35=5|34=2|49=DBL|52=20170822-14:02:42.528|56=BME|10=213|
20170822-14:02:42.531 : 8=FIXT.1.1|9=63|35=5|49=BME|56=DBL|52=20170822-14:02:42.530|34=2|50=TID|57=SID|10=216|
20170822-14:03:29.959 : 8=FIXT.1.1|9=98|35=A|34=1|49=DBL|50=SID|52=20170822-14:03:29.957|56=BME|57=TID|98=0|108=30|141=Y|1137=4|1408=T4.0|10=115|
20170822-14:03:29.981 : 8=FIXT.1.1|9=98|35=A|49=BME|56=DBL|52=20170822-14:03:29.980|34=1|50=TID|57=SID|98=0|108=30|141=Y|1137=9|1408=T4.0|10=116|
20170822-14:03:32.147 : 8=FIXT.1.1|9=49|35=5|34=2|49=DBL|52=20170822-14:03:32.147|56=BME|10=210|
20170822-14:03:32.148 : 8=FIXT.1.1|9=63|35=5|49=BME|56=DBL|52=20170822-14:03:32.147|34=2|50=TID|57=SID|10=220|
20170822-14:03:34.833 : 8=FIXT.1.1|9=98|35=A|34=1|49=DBL|50=SID|52=20170822-14:03:34.827|56=BME|57=TID|98=0|108=30|141=Y|1137=4|1408=T4.0|10=107|
20170822-14:03:34.837 : 8=FIXT.1.1|9=98|35=A|49=BME|56=DBL|52=20170822-14:03:34.835|34=1|50=TID|57=SID|98=0|108=30|141=Y|1137=9|1408=T4.0|10=111|
20170822-14:04:04.303 : 8=FIXT.1.1|9=49|35=0|34=2|49=DBL|52=20170822-14:04:04.290|56=BME|10=204|
20170822-14:04:05.881 : 8=FIXT.1.1|9=63|35=0|49=BME|56=DBL|52=20170822-14:04:05.869|34=2|50=TID|57=SID|10=227|
20170822-14:04:34.191 : 8=FIXT.1.1|9=49|35=0|34=3|49=DBL|52=20170822-14:04:34.175|56=BME|10=210|
20170822-14:04:36.900 : 8=FIXT.1.1|9=63|35=0|49=BME|56=DBL|52=20170822-14:04:36.900|34=3|50=TID|57=SID|10=218|
20170822-14:05:40.456 : 8=FIXT.1.1|9=98|35=A|34=1|49=DBL|50=SID|52=20170822-14:05:40.451|56=BME|57=TID|98=0|108=30|141=Y|1137=4|1408=T4.0|10=099|
20170822-14:05:40.524 : 8=FIXT.1.1|9=98|35=A|49=BME|56=DBL|52=20170822-14:05:40.521|34=1|50=TID|57=SID|98=0|108=30|141=Y|1137=9|1408=T4.0|10=102|
20170822-14:06:10.135 : 8=FIXT.1.1|9=49|35=0|34=2|49=DBL|52=20170822-14:06:10.053|56=BME|10=200|
20170822-14:06:11.555 : 8=FIXT.1.1|9=63|35=0|49=BME|56=DBL|52=20170822-14:06:11.554|34=2|50=TID|57=SID|10=217|
20170822-14:06:40.103 : 8=FIXT.1.1|9=98|35=A|34=1|49=DBL|50=SID|52=20170822-14:06:40.096|56=BME|57=TID|98=0|108=30|141=Y|1137=4|1408=T4.0|10=105|
20170822-14:07:40.964 : 8=FIXT.1.1|9=98|35=A|34=1|49=DBL|50=SID|52=20170822-14:07:40.964|56=BME|57=TID|98=0|108=30|141=Y|1137=4|1408=T4.0|10=110|
20170822-14:07:40.967 : 8=FIXT.1.1|9=98|35=A|49=BME|56=DBL|52=20170822-14:07:40.966|34=1|50=TID|57=SID|98=0|108=30|141=Y|1137=9|1408=T4.0|10=117|
20170822-14:08:10.194 : 8=FIXT.1.1|9=49|35=0|34=2|49=DBL|52=20170822-14:08:10.193|56=BME|10=207|
20170822-14:08:11.998 : 8=FIXT.1.1|9=63|35=0|49=BME|56=DBL|52=20170822-14:08:11.998|34=2|50=TID|57=SID|10=231|
20170822-14:08:40.047 : 8=FIXT.1.1|9=98|35=A|34=1|49=DBL|50=SID|52=20170822-14:08:40.043|56=BME|57=TID|98=0|108=30|141=Y|1137=4|1408=T4.0|10=099|
20170822-14:08:40.049 : 8=FIXT.1.1|9=98|35=A|49=BME|56=DBL|52=20170822-14:08:40.048|34=1|50=TID|57=SID|98=0|108=30|141=Y|1137=9|1408=T4.0|10=109|
20170822-14:09:10.131 : 8=FIXT.1.1|9=49|35=0|34=2|49=DBL|52=20170822-14:09:10.129|56=BME|10=207|
20170822-14:09:11.078 : 8=FIXT.1.1|9=63|35=0|49=BME|56=DBL|52=20170822-14:09:11.078|34=2|50=TID|57=SID|10=221|
20170822-14:09:40.144 : 8=FIXT.1.1|9=49|35=0|34=3|49=DBL|52=20170822-14:09:40.135|56=BME|10=208|
20170822-14:09:42.109 : 8=FIXT.1.1|9=63|35=0|49=BME|56=DBL|52=20170822-14:09:42.108|34=3|50=TID|57=SID|10=220|
20170822-14:10:10.310 : 8=FIXT.1.1|9=49|35=0|34=4|49=DBL|52=20170822-14:10:10.303|56=BME|10=195|
20170822-14:10:13.145 : 8=FIXT.1.1|9=63|35=0|49=BME|56=DBL|52=20170822-14:10:13.145|34=4|50=TID|57=SID|10=212|
20170822-14:18:16.405 : 8=FIXT.1.1|9=98|35=A|34=1|49=DBL|50=SID|52=20170822-14:18:16.402|56=BME|57=TID|98=0|108=30|141=Y|1137=4|1408=T4.0|10=102|
20170822-14:18:16.422 : 8=FIXT.1.1|9=98|35=A|49=BME|56=DBL|52=20170822-14:18:16.420|34=1|50=TID|57=SID|98=0|108=30|141=Y|1137=9|1408=T4.0|10=107|
20170822-14:18:24.236 : 8=FIXT.1.1|9=49|35=5|34=2|49=DBL|52=20170822-14:18:24.235|56=BME|10=215|
20170822-14:18:24.237 : 8=FIXT.1.1|9=63|35=5|49=BME|56=DBL|52=20170822-14:18:24.236|34=2|50=TID|57=SID|10=226|
20170822-14:18:38.384 : 8=FIXT.1.1|9=98|35=A|34=1|49=DBL|50=SID|52=20170822-14:18:38.376|56=BME|57=TID|98=0|108=30|141=Y|1137=4|1408=T4.0|10=116|
20170822-14:18:38.388 : 8=FIXT.1.1|9=98|35=A|49=BME|56=DBL|52=20170822-14:18:38.386|34=1|50=TID|57=SID|98=0|108=30|141=Y|1137=9|1408=T4.0|10=122|
20170822-14:36:39.421 : 8=FIXT.1.1|9=98|35=A|34=1|49=DBL|50=SID|52=20170822-14:36:39.406|56=BME|57=TID|98=0|108=30|141=Y|1137=4|1408=T4.0|10=111|
20170822-14:36:39.456 : 8=FIXT.1.1|9=98|35=A|49=BME|56=DBL|52=20170822-14:36:39.445|34=1|50=TID|57=SID|98=0|108=30|141=Y|1137=9|1408=T4.0|10=119|
20170822-14:36:49.597 : 8=FIXT.1.1|9=181|35=D|34=2|49=DBL|52=20170822-14:36:49.596|56=BME|1137=9|11=2017-08-22_c78979d2-5193-4d9e-b9cd-fe9c65c9195c|21=1|38=10|40=2|44=30|54=1|55=APPL|59=3|60=20170822-14:36:49|581=1|1030=I|10=168|
20170822-14:36:49.616 : 8=FIXT.1.1|9=216|35=8|49=BME|56=DBL|52=20170822-14:36:49.616|34=2|50=TID|57=SID|37=1|11=2017-08-22_c78979d2-5193-4d9e-b9cd-fe9c65c9195c|17=0|150=A|39=A|581=1|55=APPL|54=1|38=10|40=2|44=30|59=3|151=10|14=0|60=20170822-14:36:49|1030=I|10=069|
20170822-14:36:49.752 : 8=FIXT.1.1|9=215|35=8|49=BME|56=DBL|52=20170822-14:36:49.626|34=3|50=TID|57=SID|37=1|11=2017-08-22_c78979d2-5193-4d9e-b9cd-fe9c65c9195c|17=1|150=0|39=0|581=1|55=APPL|54=1|38=10|40=2|44=0|59=3|151=10|14=0|60=20170822-14:36:49|1030=I|10=242|
20170822-14:36:49.865 : 8=FIXT.1.1|9=214|35=8|49=BME|56=DBL|52=20170822-14:36:49.626|34=4|50=TID|57=SID|37=1|11=2017-08-22_c78979d2-5193-4d9e-b9cd-fe9c65c9195c|17=2|150=C|39=8|581=1|55=APPL|54=1|38=10|40=2|44=0|59=3|151=0|14=0|60=20170822-14:36:49|1030=I|10=221|
20170822-14:36:54.867 : 8=FIXT.1.1|9=49|35=5|34=3|49=DBL|52=20170822-14:36:54.867|56=BME|10=230|
20170822-14:36:54.868 : 8=FIXT.1.1|9=63|35=5|49=BME|56=DBL|52=20170822-14:36:54.867|34=5|50=TID|57=SID|10=242|
20170822-14:45:47.057 : 8=FIXT.1.1|9=98|35=A|34=1|49=DBL|50=SID|52=20170822-14:45:47.051|56=BME|57=TID|98=0|108=30|141=Y|1137=4|1408=T4.0|10=106|
20170822-14:45:47.058 : 8=FIXT.1.1|9=98|35=A|49=BME|56=DBL|52=20170822-14:45:47.058|34=1|50=TID|57=SID|98=0|108=30|141=Y|1137=9|1408=T4.0|10=118|
20170822-14:47:04.985 : 8=FIXT.1.1|9=98|35=A|34=1|49=DBL|50=SID|52=20170822-14:47:04.973|56=BME|57=TID|98=0|108=30|141=Y|1137=4|1408=T4.0|10=114|
20170822-14:47:04.987 : 8=FIXT.1.1|9=98|35=A|49=BME|56=DBL|52=20170822-14:47:04.986|34=1|50=TID|57=SID|98=0|108=30|141=Y|1137=9|1408=T4.0|10=123|
20170822-14:47:25.325 : 8=FIXT.1.1|9=183|35=D|34=2|49=DBL|52=20170822-14:47:25.325|56=BME|1137=9|11=2017-08-22_56bf629c-9a95-4c99-8dba-52645a89c1af|21=1|38=123|40=2|44=321|54=1|55=APPL|59=3|60=20170822-14:47:25|581=1|1030=I|10=239|
20170822-14:47:25.338 : 8=FIXT.1.1|9=219|35=8|49=BME|56=DBL|52=20170822-14:47:25.332|34=2|50=TID|57=SID|37=1|11=2017-08-22_56bf629c-9a95-4c99-8dba-52645a89c1af|17=0|150=A|39=A|581=1|55=APPL|54=1|38=123|40=2|44=321|59=3|151=123|14=0|60=20170822-14:47:25|1030=I|10=199|
20170822-14:47:25.417 : 8=FIXT.1.1|9=217|35=8|49=BME|56=DBL|52=20170822-14:47:25.334|34=3|50=TID|57=SID|37=1|11=2017-08-22_56bf629c-9a95-4c99-8dba-52645a89c1af|17=1|150=0|39=0|581=1|55=APPL|54=1|38=123|40=2|44=0|59=3|151=123|14=0|60=20170822-14:47:25|1030=I|10=065|
20170822-14:47:25.463 : 8=FIXT.1.1|9=215|35=8|49=BME|56=DBL|52=20170822-14:47:25.336|34=4|50=TID|57=SID|37=1|11=2017-08-22_56bf629c-9a95-4c99-8dba-52645a89c1af|17=2|150=C|39=8|581=1|55=APPL|54=1|38=123|40=2|44=0|59=3|151=0|14=0|60=20170822-14:47:25|1030=I|10=248|
20170822-14:47:42.261 : 8=FIXT.1.1|9=49|35=5|34=3|49=DBL|52=20170822-14:47:42.261|56=BME|10=217|
20170822-14:47:42.262 : 8=FIXT.1.1|9=63|35=5|49=BME|56=DBL|52=20170822-14:47:42.261|34=5|50=TID|57=SID|10=229|
20170822-14:50:17.331 : 8=FIXT.1.1|9=98|35=A|34=1|49=DBL|50=SID|52=20170822-14:50:17.325|56=BME|57=TID|98=0|108=30|141=Y|1137=4|1408=T4.0|10=103|
20170822-14:50:17.342 : 8=FIXT.1.1|9=98|35=A|49=BME|56=DBL|52=20170822-14:50:17.333|34=1|50=TID|57=SID|98=0|108=30|141=Y|1137=9|1408=T4.0|10=107|
20170822-14:50:34.841 : 8=FIXT.1.1|9=193|35=D|34=2|49=DBL|52=20170822-14:50:34.841|56=BME|1137=9|11=2017-08-22_7c0fa34b-0397-4a02-a820-c458f8571132|21=1|38=23424|40=2|44=23423442342|54=1|55=APPL|59=3|60=20170822-14:50:34|581=1|1030=I|10=005|
20170822-14:50:34.844 : 8=FIXT.1.1|9=231|35=8|49=BME|56=DBL|52=20170822-14:50:34.842|34=2|50=TID|57=SID|37=1|11=2017-08-22_7c0fa34b-0397-4a02-a820-c458f8571132|17=0|150=A|39=A|581=1|55=APPL|54=1|38=23424|40=2|44=23423442342|59=3|151=23424|14=0|60=20170822-14:50:34|1030=I|10=066|
20170822-14:50:34.940 : 8=FIXT.1.1|9=221|35=8|49=BME|56=DBL|52=20170822-14:50:34.842|34=3|50=TID|57=SID|37=1|11=2017-08-22_7c0fa34b-0397-4a02-a820-c458f8571132|17=1|150=0|39=0|581=1|55=APPL|54=1|38=23424|40=2|44=0|59=3|151=23424|14=0|60=20170822-14:50:34|1030=I|10=032|
20170822-14:50:35.013 : 8=FIXT.1.1|9=217|35=8|49=BME|56=DBL|52=20170822-14:50:34.843|34=4|50=TID|57=SID|37=1|11=2017-08-22_7c0fa34b-0397-4a02-a820-c458f8571132|17=2|150=C|39=8|581=1|55=APPL|54=1|38=23424|40=2|44=0|59=3|151=0|14=0|60=20170822-14:50:34|1030=I|10=116|
20170822-14:51:04.665 : 8=FIXT.1.1|9=49|35=0|34=3|49=DBL|52=20170822-14:51:04.663|56=BME|10=211|
20170822-14:51:05.388 : 8=FIXT.1.1|9=63|35=0|49=BME|56=DBL|52=20170822-14:51:05.388|34=5|50=TID|57=SID|10=228|
20170822-15:08:49.707 : 8=FIXT.1.1|9=98|35=A|34=1|49=DBL|50=SID|52=20170822-15:08:49.699|56=BME|57=TID|98=0|108=30|141=Y|1137=4|1408=T4.0|10=126|
20170822-15:08:49.712 : 8=FIXT.1.1|9=98|35=A|49=BME|56=DBL|52=20170822-15:08:49.708|34=1|50=TID|57=SID|98=0|108=30|141=Y|1137=9|1408=T4.0|10=122|
20170822-15:08:57.311 : 8=FIXT.1.1|9=184|35=D|34=2|49=DBL|52=20170822-15:08:57.311|56=BME|1137=9|11=2017-08-22_482a8939-66e0-4841-8c15-a58a73838c6d|21=1|38=223|40=2|44=2323|54=1|55=APPL|59=3|60=20170822-15:08:57|581=1|1030=I|10=052|
20170822-15:08:57.312 : 8=FIXT.1.1|9=220|35=8|49=BME|56=DBL|52=20170822-15:08:57.311|34=2|50=TID|57=SID|37=1|11=2017-08-22_482a8939-66e0-4841-8c15-a58a73838c6d|17=0|150=A|39=A|581=1|55=APPL|54=1|38=223|40=2|44=2323|59=3|151=223|14=0|60=20170822-15:08:57|1030=I|10=006|
20170822-15:08:57.393 : 8=FIXT.1.1|9=217|35=8|49=BME|56=DBL|52=20170822-15:08:57.311|34=3|50=TID|57=SID|37=1|11=2017-08-22_482a8939-66e0-4841-8c15-a58a73838c6d|17=1|150=0|39=0|581=1|55=APPL|54=1|38=223|40=2|44=0|59=3|151=223|14=0|60=20170822-15:08:57|1030=I|10=082|
20170822-15:08:57.490 : 8=FIXT.1.1|9=215|35=8|49=BME|56=DBL|52=20170822-15:08:57.312|34=4|50=TID|57=SID|37=1|11=2017-08-22_482a8939-66e0-4841-8c15-a58a73838c6d|17=2|150=C|39=8|581=1|55=APPL|54=1|38=223|40=2|44=0|59=3|151=0|14=0|60=20170822-15:08:57|1030=I|10=007|
20170822-15:10:11.861 : 8=FIXT.1.1|9=98|35=A|34=1|49=DBL|50=SID|52=20170822-15:10:11.855|56=BME|57=TID|98=0|108=30|141=Y|1137=4|1408=T4.0|10=102|
20170822-15:10:11.863 : 8=FIXT.1.1|9=98|35=A|49=BME|56=DBL|52=20170822-15:10:11.861|34=1|50=TID|57=SID|98=0|108=30|141=Y|1137=9|1408=T4.0|10=104|
20170822-15:10:41.201 : 8=FIXT.1.1|9=49|35=0|34=2|49=DBL|52=20170822-15:10:41.201|56=BME|10=195|
20170822-15:10:42.898 : 8=FIXT.1.1|9=63|35=0|49=BME|56=DBL|52=20170822-15:10:42.897|34=2|50=TID|57=SID|10=227|
20170822-15:11:04.910 : 8=FIXT.1.1|9=49|35=5|34=3|49=DBL|52=20170822-15:11:04.909|56=BME|10=216|
20170822-15:11:04.911 : 8=FIXT.1.1|9=63|35=5|49=BME|56=DBL|52=20170822-15:11:04.910|34=3|50=TID|57=SID|10=218|
20170822-15:15:08.992 : 8=FIXT.1.1|9=98|35=A|34=1|49=DBL|50=SID|52=20170822-15:15:08.980|56=BME|57=TID|98=0|108=30|141=Y|1137=4|1408=T4.0|10=112|
20170822-15:15:08.992 : 8=FIXT.1.1|9=98|35=A|49=BME|56=DBL|52=20170822-15:15:08.992|34=1|50=TID|57=SID|98=0|108=30|141=Y|1137=9|1408=T4.0|10=120|
20170822-15:15:38.298 : 8=FIXT.1.1|9=49|35=0|34=2|49=DBL|52=20170822-15:15:38.298|56=BME|10=222|
20170822-15:15:39.021 : 8=FIXT.1.1|9=63|35=0|49=BME|56=DBL|52=20170822-15:15:39.021|34=2|50=TID|57=SID|10=217|
20170822-15:15:54.268 : 8=FIXT.1.1|9=98|35=A|34=1|49=DBL|50=SID|52=20170822-15:15:54.255|56=BME|57=TID|98=0|108=30|141=Y|1137=4|1408=T4.0|10=108|
20170822-15:15:54.272 : 8=FIXT.1.1|9=98|35=A|49=BME|56=DBL|52=20170822-15:15:54.269|34=1|50=TID|57=SID|98=0|108=30|141=Y|1137=9|1408=T4.0|10=118|
20170822-15:17:25.018 : 8=FIXT.1.1|9=98|35=A|34=1|49=DBL|50=SID|52=20170822-15:17:25.011|56=BME|57=TID|98=0|108=30|141=Y|1137=4|1408=T4.0|10=098|
20170822-15:17:25.018 : 8=FIXT.1.1|9=98|35=A|49=BME|56=DBL|52=20170822-15:17:25.018|34=1|50=TID|57=SID|98=0|108=30|141=Y|1137=9|1408=T4.0|10=110|
20170822-15:18:21.552 : 8=FIXT.1.1|9=98|35=A|34=1|49=DBL|50=SID|52=20170822-15:18:21.548|56=BME|57=TID|98=0|108=30|141=Y|1137=4|1408=T4.0|10=110|
20170822-15:18:21.553 : 8=FIXT.1.1|9=98|35=A|49=BME|56=DBL|52=20170822-15:18:21.553|34=1|50=TID|57=SID|98=0|108=30|141=Y|1137=9|1408=T4.0|10=111|
20170822-15:19:20.465 : 8=FIXT.1.1|9=98|35=A|34=1|49=DBL|50=SID|52=20170822-15:19:20.450|56=BME|57=TID|98=0|108=30|141=Y|1137=4|1408=T4.0|10=102|
20170822-15:19:20.465 : 8=FIXT.1.1|9=98|35=A|49=BME|56=DBL|52=20170822-15:19:20.465|34=1|50=TID|57=SID|98=0|108=30|141=Y|1137=9|1408=T4.0|10=113|
20170822-15:19:50.542 : 8=FIXT.1.1|9=49|35=0|34=2|49=DBL|52=20170822-15:19:50.541|56=BME|10=211|
20170822-15:19:51.497 : 8=FIXT.1.1|9=63|35=0|49=BME|56=DBL|52=20170822-15:19:51.497|34=2|50=TID|57=SID|10=232|
20170822-15:20:05.968 : 8=FIXT.1.1|9=98|35=A|34=1|49=DBL|50=SID|52=20170822-15:20:05.958|56=BME|57=TID|98=0|108=30|141=Y|1137=4|1408=T4.0|10=110|
20170822-15:20:05.978 : 8=FIXT.1.1|9=98|35=A|49=BME|56=DBL|52=20170822-15:20:05.968|34=1|50=TID|57=SID|98=0|108=30|141=Y|1137=9|1408=T4.0|10=116|
20170822-15:20:35.312 : 8=FIXT.1.1|9=49|35=0|34=2|49=DBL|52=20170822-15:20:35.305|56=BME|10=204|
20170822-15:20:36.012 : 8=FIXT.1.1|9=63|35=0|49=BME|56=DBL|52=20170822-15:20:36.006|34=2|50=TID|57=SID|10=213|
20170822-15:42:40.665 : 8=FIXT.1.1|9=98|35=A|34=1|49=DBL|50=SID|52=20170822-15:42:40.649|56=BME|57=TID|98=0|108=30|141=Y|1137=4|1408=T4.0|10=110|
20170822-15:42:40.673 : 8=FIXT.1.1|9=98|35=A|49=BME|56=DBL|52=20170822-15:42:40.673|34=1|50=TID|57=SID|98=0|108=30|141=Y|1137=9|1408=T4.0|10=112|
20170822-15:42:51.788 : 8=FIXT.1.1|9=186|35=D|34=2|49=DBL|52=20170822-15:42:51.787|56=BME|1137=9|11=2017-08-22_ed492fcd-d7cd-46a7-95a1-10c41b2a51fb|21=1|38=23123|40=2|44=4543|54=1|55=APPL|59=3|60=20170822-15:42:51|581=1|1030=I|10=254|
20170822-15:42:51.789 : 8=FIXT.1.1|9=224|35=8|49=BME|56=DBL|52=20170822-15:42:51.789|34=2|50=TID|57=SID|37=1|11=2017-08-22_ed492fcd-d7cd-46a7-95a1-10c41b2a51fb|17=0|150=A|39=A|581=1|55=APPL|54=1|38=23123|40=2|44=4543|59=3|151=23123|14=0|60=20170822-15:42:51|1030=I|10=056|
20170822-15:42:51.837 : 8=FIXT.1.1|9=221|35=8|49=BME|56=DBL|52=20170822-15:42:51.789|34=3|50=TID|57=SID|37=1|11=2017-08-22_ed492fcd-d7cd-46a7-95a1-10c41b2a51fb|17=1|150=0|39=0|581=1|55=APPL|54=1|38=23123|40=2|44=0|59=3|151=23123|14=0|60=20170822-15:42:51|1030=I|10=117|
20170822-15:42:51.887 : 8=FIXT.1.1|9=217|35=8|49=BME|56=DBL|52=20170822-15:42:51.789|34=4|50=TID|57=SID|37=1|11=2017-08-22_ed492fcd-d7cd-46a7-95a1-10c41b2a51fb|17=2|150=C|39=8|581=1|55=APPL|54=1|38=23123|40=2|44=0|59=3|151=0|14=0|60=20170822-15:42:51|1030=I|10=204|
20170822-15:43:21.236 : 8=FIXT.1.1|9=49|35=0|34=3|49=DBL|52=20170822-15:43:21.236|56=BME|10=208|
20170822-15:43:22.715 : 8=FIXT.1.1|9=63|35=0|49=BME|56=DBL|52=20170822-15:43:22.715|34=5|50=TID|57=SID|10=223|
20170822-15:44:12.546 : 8=FIXT.1.1|9=98|35=A|34=1|49=DBL|50=SID|52=20170822-15:44:12.543|56=BME|57=TID|98=0|108=30|141=Y|1137=4|1408=T4.0|10=104|
20170822-15:44:12.563 : 8=FIXT.1.1|9=98|35=A|49=BME|56=DBL|52=20170822-15:44:12.547|34=1|50=TID|57=SID|98=0|108=30|141=Y|1137=9|1408=T4.0|10=113|
20170822-15:44:24.382 : 8=FIXT.1.1|9=183|35=D|34=2|49=DBL|52=20170822-15:44:24.382|56=BME|1137=9|11=2017-08-22_b52d4f2b-9bf1-4da1-afe0-6e50c2839ff0|21=1|38=123|40=2|44=321|54=1|55=APPL|59=3|60=20170822-15:44:24|581=1|1030=I|10=090|
20170822-15:44:24.384 : 8=FIXT.1.1|9=219|35=8|49=BME|56=DBL|52=20170822-15:44:24.383|34=2|50=TID|57=SID|37=1|11=2017-08-22_b52d4f2b-9bf1-4da1-afe0-6e50c2839ff0|17=0|150=A|39=A|581=1|55=APPL|54=1|38=123|40=2|44=321|59=3|151=123|14=0|60=20170822-15:44:24|1030=I|10=053|
20170822-15:44:24.458 : 8=FIXT.1.1|9=217|35=8|49=BME|56=DBL|52=20170822-15:44:24.383|34=3|50=TID|57=SID|37=1|11=2017-08-22_b52d4f2b-9bf1-4da1-afe0-6e50c2839ff0|17=1|150=0|39=0|581=1|55=APPL|54=1|38=123|40=2|44=0|59=3|151=123|14=0|60=20170822-15:44:24|1030=I|10=173|
20170822-15:44:24.488 : 8=FIXT.1.1|9=215|35=8|49=BME|56=DBL|52=20170822-15:44:24.383|34=4|50=TID|57=SID|37=1|11=2017-08-22_b52d4f2b-9bf1-4da1-afe0-6e50c2839ff0|17=2|150=C|39=8|581=1|55=APPL|54=1|38=123|40=2|44=0|59=3|151=0|14=0|60=20170822-15:44:24|1030=I|10=098|
20170822-15:44:54.238 : 8=FIXT.1.1|9=49|35=0|34=3|49=DBL|52=20170822-15:44:54.235|56=BME|10=214|
20170822-15:44:55.592 : 8=FIXT.1.1|9=63|35=0|49=BME|56=DBL|52=20170822-15:44:55.591|34=5|50=TID|57=SID|10=232|
20170822-15:45:24.005 : 8=FIXT.1.1|9=49|35=0|34=4|49=DBL|52=20170822-15:45:24.005|56=BME|10=208|
20170822-15:45:26.630 : 8=FIXT.1.1|9=63|35=0|49=BME|56=DBL|52=20170822-15:45:26.630|34=6|50=TID|57=SID|10=226|
20170822-15:45:54.880 : 8=FIXT.1.1|9=49|35=0|34=5|49=DBL|52=20170822-15:45:54.854|56=BME|10=224|
20170822-15:45:57.663 : 8=FIXT.1.1|9=63|35=0|49=BME|56=DBL|52=20170822-15:45:57.662|34=7|50=TID|57=SID|10=236|
20170822-15:46:36.107 : 8=FIXT.1.1|9=98|35=A|34=1|49=DBL|50=SID|52=20170822-15:46:36.095|56=BME|57=TID|98=0|108=30|141=Y|1137=4|1408=T4.0|10=114|
20170822-15:46:36.108 : 8=FIXT.1.1|9=98|35=A|49=BME|56=DBL|52=20170822-15:46:36.107|34=1|50=TID|57=SID|98=0|108=30|141=Y|1137=9|1408=T4.0|10=113|
20170822-15:46:45.770 : 8=FIXT.1.1|9=185|35=D|34=2|49=DBL|52=20170822-15:46:45.768|56=BME|1137=9|11=2017-08-22_312949a4-6175-4b35-b4f2-385ed74d747d|21=1|38=23123|40=2|44=231|54=1|55=APPL|59=3|60=20170822-15:46:45|581=1|1030=I|10=153|
20170822-15:46:45.771 : 8=FIXT.1.1|9=223|35=8|49=BME|56=DBL|52=20170822-15:46:45.770|34=2|50=TID|57=SID|37=1|11=2017-08-22_312949a4-6175-4b35-b4f2-385ed74d747d|17=0|150=A|39=A|581=1|55=APPL|54=1|38=23123|40=2|44=231|59=3|151=23123|14=0|60=20170822-15:46:45|1030=I|10=202|
20170822-15:46:45.815 : 8=FIXT.1.1|9=221|35=8|49=BME|56=DBL|52=20170822-15:46:45.770|34=3|50=TID|57=SID|37=1|11=2017-08-22_312949a4-6175-4b35-b4f2-385ed74d747d|17=1|150=0|39=0|581=1|55=APPL|54=1|38=23123|40=2|44=0|59=3|151=23123|14=0|60=20170822-15:46:45|1030=I|10=066|
20170822-15:46:45.846 : 8=FIXT.1.1|9=217|35=8|49=BME|56=DBL|52=20170822-15:46:45.770|34=4|50=TID|57=SID|37=1|11=2017-08-22_312949a4-6175-4b35-b4f2-385ed74d747d|17=2|150=C|39=8|581=1|55=APPL|54=1|38=23123|40=2|44=0|59=3|151=0|14=0|60=20170822-15:46:45|1030=I|10=153|
20170822-15:49:52.822 : 8=FIXT.1.1|9=98|35=A|34=1|49=DBL|50=SID|52=20170822-15:49:52.813|56=BME|57=TID|98=0|108=30|141=Y|1137=4|1408=T4.0|10=113|
20170822-15:49:52.826 : 8=FIXT.1.1|9=98|35=A|49=BME|56=DBL|52=20170822-15:49:52.823|34=1|50=TID|57=SID|98=0|108=30|141=Y|1137=9|1408=T4.0|10=119|
20170822-15:50:12.052 : 8=FIXT.1.1|9=195|35=D|34=2|49=DBL|52=20170822-15:50:12.052|56=BME|1137=9|11=2017-08-22_18c5fa33-4c81-4639-9d5e-d4a67f9c4293|21=1|38=233|40=2|44=213232321231321|54=1|55=APPL|59=3|60=20170822-15:50:12|581=1|1030=I|10=211|
20170822-15:50:12.053 : 8=FIXT.1.1|9=231|35=8|49=BME|56=DBL|52=20170822-15:50:12.052|34=2|50=TID|57=SID|37=1|11=2017-08-22_18c5fa33-4c81-4639-9d5e-d4a67f9c4293|17=0|150=A|39=A|581=1|55=APPL|54=1|38=233|40=2|44=213232321231321|59=3|151=233|14=0|60=20170822-15:50:12|1030=I|10=166|
20170822-15:50:12.104 : 8=FIXT.1.1|9=217|35=8|49=BME|56=DBL|52=20170822-15:50:12.053|34=3|50=TID|57=SID|37=1|11=2017-08-22_18c5fa33-4c81-4639-9d5e-d4a67f9c4293|17=1|150=0|39=0|581=1|55=APPL|54=1|38=233|40=2|44=0|59=3|151=233|14=0|60=20170822-15:50:12|1030=I|10=204|
20170822-15:50:12.157 : 8=FIXT.1.1|9=215|35=8|49=BME|56=DBL|52=20170822-15:50:12.053|34=4|50=TID|57=SID|37=1|11=2017-08-22_18c5fa33-4c81-4639-9d5e-d4a67f9c4293|17=2|150=C|39=8|581=1|55=APPL|54=1|38=233|40=2|44=0|59=3|151=0|14=0|60=20170822-15:50:12|1030=I|10=127|
20170822-15:51:03.749 : 8=FIXT.1.1|9=98|35=A|34=1|49=DBL|50=SID|52=20170822-15:51:03.741|56=BME|57=TID|98=0|108=30|141=Y|1137=4|1408=T4.0|10=102|
20170822-15:51:03.751 : 8=FIXT.1.1|9=98|35=A|49=BME|56=DBL|52=20170822-15:51:03.750|34=1|50=TID|57=SID|98=0|108=30|141=Y|1137=9|1408=T4.0|10=107|
20170822-15:51:11.975 : 8=FIXT.1.1|9=187|35=D|34=2|49=DBL|52=20170822-15:51:11.975|56=BME|1137=9|11=2017-08-22_cc744e55-99ce-4a2a-8424-8e791811aeb9|21=1|38=223|40=2|44=2323232|54=1|55=APPL|59=3|60=20170822-15:51:11|581=1|1030=I|10=127|
20170822-15:51:11.976 : 8=FIXT.1.1|9=223|35=8|49=BME|56=DBL|52=20170822-15:51:11.975|34=2|50=TID|57=SID|37=1|11=2017-08-22_cc744e55-99ce-4a2a-8424-8e791811aeb9|17=0|150=A|39=A|581=1|55=APPL|54=1|38=223|40=2|44=2323232|59=3|151=223|14=0|60=20170822-15:51:11|1030=I|10=081|
20170822-15:51:12.063 : 8=FIXT.1.1|9=217|35=8|49=BME|56=DBL|52=20170822-15:51:11.976|34=3|50=TID|57=SID|37=1|11=2017-08-22_cc744e55-99ce-4a2a-8424-8e791811aeb9|17=1|150=0|39=0|581=1|55=APPL|54=1|38=223|40=2|44=0|59=3|151=223|14=0|60=20170822-15:51:11|1030=I|10=004|
20170822-15:51:12.148 : 8=FIXT.1.1|9=215|35=8|49=BME|56=DBL|52=20170822-15:51:11.976|34=4|50=TID|57=SID|37=1|11=2017-08-22_cc744e55-99ce-4a2a-8424-8e791811aeb9|17=2|150=C|39=8|581=1|55=APPL|54=1|38=223|40=2|44=0|59=3|151=0|14=0|60=20170822-15:51:11|1030=I|10=184|
20170822-15:51:41.473 : 8=FIXT.1.1|9=49|35=0|34=3|49=DBL|52=20170822-15:51:41.472|56=BME|10=211|
20170822-15:51:42.788 : 8=FIXT.1.1|9=63|35=0|49=BME|56=DBL|52=20170822-15:51:42.788|34=5|50=TID|57=SID|10=234|
20170822-15:52:11.060 : 8=FIXT.1.1|9=49|35=0|34=4|49=DBL|52=20170822-15:52:11.056|56=BME|10=208|
20170822-15:52:13.819 : 8=FIXT.1.1|9=63|35=0|49=BME|56=DBL|52=20170822-15:52:13.819|34=6|50=TID|57=SID|10=229|
20170822-15:52:41.047 : 8=FIXT.1.1|9=49|35=0|34=5|49=DBL|52=20170822-15:52:41.046|56=BME|10=211|
20170822-15:52:44.854 : 8=FIXT.1.1|9=63|35=0|49=BME|56=DBL|52=20170822-15:52:44.854|34=7|50=TID|57=SID|10=233|
20170822-15:53:11.287 : 8=FIXT.1.1|9=49|35=0|34=6|49=DBL|52=20170822-15:53:11.275|56=BME|10=214|
20170822-15:53:15.880 : 8=FIXT.1.1|9=63|35=0|49=BME|56=DBL|52=20170822-15:53:15.880|34=8|50=TID|57=SID|10=232|
20170822-15:54:11.950 : 8=FIXT.1.1|9=98|35=A|34=1|49=DBL|50=SID|52=20170822-15:54:11.950|56=BME|57=TID|98=0|108=30|141=Y|1137=4|1408=T4.0|10=106|
20170822-15:54:11.951 : 8=FIXT.1.1|9=98|35=A|49=BME|56=DBL|52=20170822-15:54:11.950|34=1|50=TID|57=SID|98=0|108=30|141=Y|1137=9|1408=T4.0|10=111|
20170822-15:54:19.915 : 8=FIXT.1.1|9=189|35=D|34=2|49=DBL|52=20170822-15:54:19.913|56=BME|1137=9|11=2017-08-22_a4cfdd33-2b1c-4616-b7d8-d5fcb4ab2315|21=1|38=2323|40=2|44=23213213|54=1|55=APPL|59=3|60=20170822-15:54:19|581=1|1030=I|10=145|
20170822-15:54:19.921 : 8=FIXT.1.1|9=226|35=8|49=BME|56=DBL|52=20170822-15:54:19.915|34=2|50=TID|57=SID|37=1|11=2017-08-22_a4cfdd33-2b1c-4616-b7d8-d5fcb4ab2315|17=0|150=A|39=A|581=1|55=APPL|54=1|38=2323|40=2|44=23213213|59=3|151=2323|14=0|60=20170822-15:54:19|1030=I|10=153|
20170822-15:54:20.000 : 8=FIXT.1.1|9=219|35=8|49=BME|56=DBL|52=20170822-15:54:19.917|34=3|50=TID|57=SID|37=1|11=2017-08-22_a4cfdd33-2b1c-4616-b7d8-d5fcb4ab2315|17=1|150=0|39=0|581=1|55=APPL|54=1|38=2323|40=2|44=0|59=3|151=2323|14=0|60=20170822-15:54:19|1030=I|10=028|
20170822-15:54:20.081 : 8=FIXT.1.1|9=216|35=8|49=BME|56=DBL|52=20170822-15:54:19.919|34=4|50=TID|57=SID|37=1|11=2017-08-22_a4cfdd33-2b1c-4616-b7d8-d5fcb4ab2315|17=2|150=C|39=8|581=1|55=APPL|54=1|38=2323|40=2|44=0|59=3|151=0|14=0|60=20170822-15:54:19|1030=I|10=158|
20170822-15:54:49.183 : 8=FIXT.1.1|9=49|35=0|34=3|49=DBL|52=20170822-15:54:49.179|56=BME|10=226|
20170822-15:55:05.033 : 8=FIXT.1.1|9=98|35=A|34=1|49=DBL|50=SID|52=20170822-15:55:05.027|56=BME|57=TID|98=0|108=30|141=Y|1137=4|1408=T4.0|10=105|
20170822-15:55:05.034 : 8=FIXT.1.1|9=98|35=A|49=BME|56=DBL|52=20170822-15:55:05.034|34=1|50=TID|57=SID|98=0|108=30|141=Y|1137=9|1408=T4.0|10=108|
20170822-15:55:35.369 : 8=FIXT.1.1|9=49|35=0|34=2|49=DBL|52=20170822-15:55:35.349|56=BME|10=220|
20170822-15:55:36.068 : 8=FIXT.1.1|9=63|35=0|49=BME|56=DBL|52=20170822-15:55:36.067|34=2|50=TID|57=SID|10=228|
20170822-15:57:57.231 : 8=FIXT.1.1|9=98|35=A|34=1|49=DBL|50=SID|52=20170822-15:57:57.222|56=BME|57=TID|98=0|108=30|141=Y|1137=4|1408=T4.0|10=111|
20170822-15:57:57.234 : 8=FIXT.1.1|9=98|35=A|49=BME|56=DBL|52=20170822-15:57:57.233|34=1|50=TID|57=SID|98=0|108=30|141=Y|1137=9|1408=T4.0|10=118|
20170822-15:58:08.756 : 8=FIXT.1.1|9=185|35=D|34=2|49=DBL|52=20170822-15:58:08.756|56=BME|1137=9|11=2017-08-22_743e7a9c-c802-499f-9a54-0577f7f4e04b|21=1|38=232323|40=2|44=2323232|54=2|55=APPL|60=20170822-15:58:08|581=1|1030=I|10=037|
20170822-15:58:08.757 : 8=FIXT.1.1|9=224|35=8|49=BME|56=DBL|52=20170822-15:58:08.756|34=2|50=TID|57=SID|37=1|11=2017-08-22_743e7a9c-c802-499f-9a54-0577f7f4e04b|17=0|150=A|39=A|581=1|55=APPL|54=2|38=232323|40=2|44=2323232|151=232323|14=0|60=20170822-15:58:08|1030=I|10=146|
20170822-15:58:08.760 : 8=FIXT.1.1|9=185|35=D|34=3|49=DBL|52=20170822-15:58:08.760|56=BME|1137=9|11=2017-08-22_9028169d-1df8-470c-9e77-3371132f7e5d|21=1|38=232323|40=2|44=2323232|54=1|55=APPL|60=20170822-15:58:08|581=1|1030=I|10=187|
20170822-15:58:08.917 : 8=FIXT.1.1|9=218|35=8|49=BME|56=DBL|52=20170822-15:58:08.757|34=3|50=TID|57=SID|37=1|11=2017-08-22_743e7a9c-c802-499f-9a54-0577f7f4e04b|17=1|150=0|39=0|581=1|55=APPL|54=2|38=232323|40=2|44=0|151=232323|14=0|60=20170822-15:58:08|1030=I|10=069|
20170822-15:58:08.997 : 8=FIXT.1.1|9=224|35=8|49=BME|56=DBL|52=20170822-15:58:08.787|34=4|50=TID|57=SID|37=2|11=2017-08-22_9028169d-1df8-470c-9e77-3371132f7e5d|17=2|150=A|39=A|581=1|55=APPL|54=1|38=232323|40=2|44=2323232|151=232323|14=0|60=20170822-15:58:08|1030=I|10=053|
20170822-15:58:09.051 : 8=FIXT.1.1|9=218|35=8|49=BME|56=DBL|52=20170822-15:58:08.787|34=5|50=TID|57=SID|37=2|11=2017-08-22_9028169d-1df8-470c-9e77-3371132f7e5d|17=3|150=0|39=0|581=1|55=APPL|54=1|38=232323|40=2|44=0|151=232323|14=0|60=20170822-15:58:08|1030=I|10=231|
20170822-15:58:09.130 : 8=FIXT.1.1|9=224|35=8|49=BME|56=DBL|52=20170822-15:58:08.794|34=6|50=TID|57=SID|37=2|11=2017-08-22_9028169d-1df8-470c-9e77-3371132f7e5d|17=4|150=F|39=2|581=1|55=APPL|54=1|38=232323|40=2|44=2323232|151=0|14=232323|60=20170822-15:58:08|1030=I|10=045|
20170822-15:58:09.188 : 8=FIXT.1.1|9=224|35=8|49=BME|56=DBL|52=20170822-15:58:08.794|34=7|50=TID|57=SID|37=1|11=2017-08-22_743e7a9c-c802-499f-9a54-0577f7f4e04b|17=5|150=F|39=2|581=1|55=APPL|54=2|38=232323|40=2|44=2323232|151=0|14=232323|60=20170822-15:58:08|1030=I|10=148|
20170822-15:58:38.274 : 8=FIXT.1.1|9=49|35=0|34=4|49=DBL|52=20170822-15:58:38.274|56=BME|10=225|
20170822-15:58:39.279 : 8=FIXT.1.1|9=63|35=0|49=BME|56=DBL|52=20170822-15:58:39.279|34=8|50=TID|57=SID|10=245|
20170822-16:00:08.370 : 8=FIXT.1.1|9=98|35=A|34=1|49=DBL|50=SID|52=20170822-16:00:08.364|56=BME|57=TID|98=0|108=30|141=Y|1137=4|1408=T4.0|10=103|
20170822-16:00:08.374 : 8=FIXT.1.1|9=98|35=A|49=BME|56=DBL|52=20170822-16:00:08.373|34=1|50=TID|57=SID|98=0|108=30|141=Y|1137=9|1408=T4.0|10=108|
20170822-16:00:38.032 : 8=FIXT.1.1|9=49|35=0|34=2|49=DBL|52=20170822-16:00:38.032|56=BME|10=203|
20170822-16:00:39.403 : 8=FIXT.1.1|9=63|35=0|49=BME|56=DBL|52=20170822-16:00:39.402|34=2|50=TID|57=SID|10=215|
20170823-08:19:50.327 : 8=FIXT.1.1|9=98|35=A|34=1|49=DBL|50=SID|52=20170823-08:19:50.318|56=BME|57=TID|98=0|108=30|141=Y|1137=4|1408=T4.0|10=111|
20170823-08:21:05.900 : 8=FIXT.1.1|9=98|35=A|34=1|49=DBL|50=SID|52=20170823-08:21:05.888|56=BME|57=TID|98=0|108=30|141=Y|1137=4|1408=T4.0|10=116|
20170823-08:21:05.903 : 8=FIXT.1.1|9=98|35=A|49=BME|56=DBL|52=20170823-08:21:05.902|34=1|50=TID|57=SID|98=0|108=30|141=Y|1137=9|1408=T4.0|10=108|
20170823-08:21:35.059 : 8=FIXT.1.1|9=49|35=0|34=2|49=DBL|52=20170823-08:21:35.059|56=BME|10=214|
20170823-08:27:27.726 : 8=FIXT.1.1|9=98|35=A|34=1|49=DBL|50=SID|52=20170823-08:27:27.724|56=BME|57=TID|98=0|108=30|141=Y|1137=4|1408=T4.0|10=115|
20170823-08:27:27.729 : 8=FIXT.1.1|9=98|35=A|49=BME|56=DBL|52=20170823-08:27:27.727|34=1|50=TID|57=SID|98=0|108=30|141=Y|1137=9|1408=T4.0|10=123|
20170823-08:27:31.337 : 8=FIXT.1.1|9=49|35=5|34=2|49=DBL|52=20170823-08:27:31.336|56=BME|10=219|
20170823-08:27:31.337 : 8=FIXT.1.1|9=63|35=5|49=BME|56=DBL|52=20170823-08:27:31.337|34=2|50=TID|57=SID|10=230|
20170823-08:27:38.377 : 8=FIXT.1.1|9=98|35=A|34=1|49=DBL|50=SID|52=20170823-08:27:38.346|56=BME|57=TID|98=0|108=30|141=Y|1137=4|1408=T4.0|10=117|
20170823-08:27:38.381 : 8=FIXT.1.1|9=98|35=A|49=BME|56=DBL|52=20170823-08:27:38.379|34=1|50=TID|57=SID|98=0|108=30|141=Y|1137=9|1408=T4.0|10=128|
20170823-08:27:57.396 : 8=FIXT.1.1|9=182|35=D|34=2|49=DBL|52=20170823-08:27:57.396|56=BME|1137=9|11=2017-08-23_759df4af-9553-4361-873e-6a25e0871d56|21=1|38=223|40=2|44=2323232|54=2|55=APPL|60=20170823-08:27:57|581=1|1030=I|10=048|
20170823-08:27:57.398 : 8=FIXT.1.1|9=182|35=D|34=3|49=DBL|52=20170823-08:27:57.398|56=BME|1137=9|11=2017-08-23_172435f3-fa45-4316-8bd7-3ae7d8c5370e|21=1|38=223|40=2|44=2323232|54=1|55=APPL|60=20170823-08:27:57|581=1|1030=I|10=128|
20170823-08:27:57.402 : 8=FIXT.1.1|9=218|35=8|49=BME|56=DBL|52=20170823-08:27:57.401|34=2|50=TID|57=SID|37=1|11=2017-08-23_759df4af-9553-4361-873e-6a25e0871d56|17=0|150=A|39=A|581=1|55=APPL|54=2|38=223|40=2|44=2323232|151=223|14=0|60=20170823-08:27:57|1030=I|10=254|
20170823-08:27:57.476 : 8=FIXT.1.1|9=218|35=8|49=BME|56=DBL|52=20170823-08:27:57.402|34=3|50=TID|57=SID|37=2|11=2017-08-23_172435f3-fa45-4316-8bd7-3ae7d8c5370e|17=1|150=A|39=A|581=1|55=APPL|54=1|38=223|40=2|44=2323232|151=223|14=0|60=20170823-08:27:57|1030=I|10=079|
20170823-08:27:57.548 : 8=FIXT.1.1|9=212|35=8|49=BME|56=DBL|52=20170823-08:27:57.403|34=4|50=TID|57=SID|37=1|11=2017-08-23_759df4af-9553-4361-873e-6a25e0871d56|17=2|150=0|39=0|581=1|55=APPL|54=2|38=223|40=2|44=0|151=223|14=0|60=20170823-08:27:57|1030=I|10=171|
20170823-08:27:57.653 : 8=FIXT.1.1|9=212|35=8|49=BME|56=DBL|52=20170823-08:27:57.403|34=5|50=TID|57=SID|37=2|11=2017-08-23_172435f3-fa45-4316-8bd7-3ae7d8c5370e|17=3|150=0|39=0|581=1|55=APPL|54=1|38=223|40=2|44=0|151=223|14=0|60=20170823-08:27:57|1030=I|10=251|
20170823-08:27:57.742 : 8=FIXT.1.1|9=218|35=8|49=BME|56=DBL|52=20170823-08:27:57.404|34=6|50=TID|57=SID|37=2|11=2017-08-23_172435f3-fa45-4316-8bd7-3ae7d8c5370e|17=4|150=F|39=2|581=1|55=APPL|54=1|38=223|40=2|44=2323232|151=0|14=223|60=20170823-08:27:57|1030=I|10=077|
20170823-08:27:57.821 : 8=FIXT.1.1|9=218|35=8|49=BME|56=DBL|52=20170823-08:27:57.404|34=7|50=TID|57=SID|37=1|11=2017-08-23_759df4af-9553-4361-873e-6a25e0871d56|17=5|150=F|39=2|581=1|55=APPL|54=2|38=223|40=2|44=2323232|151=0|14=223|60=20170823-08:27:57|1030=I|10=001|
20170823-08:28:27.274 : 8=FIXT.1.1|9=49|35=0|34=4|49=DBL|52=20170823-08:28:27.270|56=BME|10=219|
20170823-08:28:28.437 : 8=FIXT.1.1|9=63|35=0|49=BME|56=DBL|52=20170823-08:28:28.437|34=8|50=TID|57=SID|10=239|
20170823-08:28:57.909 : 8=FIXT.1.1|9=49|35=0|34=5|49=DBL|52=20170823-08:28:57.899|56=BME|10=240|
20170823-08:28:59.473 : 8=FIXT.1.1|9=63|35=0|49=BME|56=DBL|52=20170823-08:28:59.473|34=9|50=TID|57=SID|10=244|
20170823-08:29:27.789 : 8=FIXT.1.1|9=98|35=A|34=1|49=DBL|50=SID|52=20170823-08:29:27.771|56=BME|57=TID|98=0|108=30|141=Y|1137=4|1408=T4.0|10=119|
20170823-08:29:27.790 : 8=FIXT.1.1|9=98|35=A|49=BME|56=DBL|52=20170823-08:29:27.790|34=1|50=TID|57=SID|98=0|108=30|141=Y|1137=9|1408=T4.0|10=125|
20170823-08:29:57.340 : 8=FIXT.1.1|9=49|35=0|34=2|49=DBL|52=20170823-08:29:57.337|56=BME|10=225|
20170823-08:29:58.818 : 8=FIXT.1.1|9=63|35=0|49=BME|56=DBL|52=20170823-08:29:58.818|34=2|50=TID|57=SID|10=240|
20170823-08:30:27.425 : 8=FIXT.1.1|9=49|35=0|34=3|49=DBL|52=20170823-08:30:27.425|56=BME|10=213|
20170823-08:30:29.846 : 8=FIXT.1.1|9=63|35=0|49=BME|56=DBL|52=20170823-08:30:29.845|34=3|50=TID|57=SID|10=231|
20170823-08:34:03.667 : 8=FIXT.1.1|9=98|35=A|34=1|49=DBL|50=SID|52=20170823-08:34:03.664|56=BME|57=TID|98=0|108=30|141=Y|1137=4|1408=T4.0|10=110|
20170823-08:34:03.668 : 8=FIXT.1.1|9=98|35=A|49=BME|56=DBL|52=20170823-08:34:03.668|34=1|50=TID|57=SID|98=0|108=30|141=Y|1137=9|1408=T4.0|10=119|
20170823-08:34:04.757 : 8=FIXT.1.1|9=49|35=5|34=2|49=DBL|52=20170823-08:34:04.756|56=BME|10=223|
20170823-08:34:04.757 : 8=FIXT.1.1|9=63|35=5|49=BME|56=DBL|52=20170823-08:34:04.757|34=2|50=TID|57=SID|10=234|
20170823-08:34:06.528 : 8=FIXT.1.1|9=98|35=A|34=1|49=DBL|50=SID|52=20170823-08:34:06.526|56=BME|57=TID|98=0|108=30|141=Y|1137=4|1408=T4.0|10=110|
20170823-08:34:06.531 : 8=FIXT.1.1|9=98|35=A|49=BME|56=DBL|52=20170823-08:34:06.529|34=1|50=TID|57=SID|98=0|108=30|141=Y|1137=9|1408=T4.0|10=118|
20170823-08:34:20.717 : 8=FIXT.1.1|9=178|35=D|34=2|49=DBL|52=20170823-08:34:20.714|56=BME|1137=9|11=2017-08-23_4a59962d-a2bf-49e0-8c73-9338ee829c77|21=1|38=10|40=2|44=4543|54=2|55=APPL|60=20170823-08:34:20|581=1|1030=I|10=184|
20170823-08:34:20.719 : 8=FIXT.1.1|9=213|35=8|49=BME|56=DBL|52=20170823-08:34:20.718|34=2|50=TID|57=SID|37=1|11=2017-08-23_4a59962d-a2bf-49e0-8c73-9338ee829c77|17=0|150=A|39=A|581=1|55=APPL|54=2|38=10|40=2|44=4543|151=10|14=0|60=20170823-08:34:20|1030=I|10=087|
20170823-08:34:20.721 : 8=FIXT.1.1|9=178|35=D|34=3|49=DBL|52=20170823-08:34:20.721|56=BME|1137=9|11=2017-08-23_76336ec2-3305-475f-a1f8-76f6da84d89a|21=1|38=10|40=2|44=4543|54=1|55=APPL|60=20170823-08:34:20|581=1|1030=I|10=171|
20170823-08:34:20.803 : 8=FIXT.1.1|9=210|35=8|49=BME|56=DBL|52=20170823-08:34:20.719|34=3|50=TID|57=SID|37=1|11=2017-08-23_4a59962d-a2bf-49e0-8c73-9338ee829c77|17=1|150=0|39=0|581=1|55=APPL|54=2|38=10|40=2|44=0|151=10|14=0|60=20170823-08:34:20|1030=I|10=149|
20170823-08:34:20.854 : 8=FIXT.1.1|9=213|35=8|49=BME|56=DBL|52=20170823-08:34:20.722|34=4|50=TID|57=SID|37=2|11=2017-08-23_76336ec2-3305-475f-a1f8-76f6da84d89a|17=2|150=A|39=A|581=1|55=APPL|54=1|38=10|40=2|44=4543|151=10|14=0|60=20170823-08:34:20|1030=I|10=075|
20170823-08:34:20.959 : 8=FIXT.1.1|9=210|35=8|49=BME|56=DBL|52=20170823-08:34:20.722|34=5|50=TID|57=SID|37=2|11=2017-08-23_76336ec2-3305-475f-a1f8-76f6da84d89a|17=3|150=0|39=0|581=1|55=APPL|54=1|38=10|40=2|44=0|151=10|14=0|60=20170823-08:34:20|1030=I|10=136|
20170823-08:34:21.077 : 8=FIXT.1.1|9=213|35=8|49=BME|56=DBL|52=20170823-08:34:20.722|34=6|50=TID|57=SID|37=2|11=2017-08-23_76336ec2-3305-475f-a1f8-76f6da84d89a|17=4|150=F|39=2|581=1|55=APPL|54=1|38=10|40=2|44=4543|151=0|14=10|60=20170823-08:34:20|1030=I|10=069|
20170823-08:34:21.154 : 8=FIXT.1.1|9=213|35=8|49=BME|56=DBL|52=20170823-08:34:20.722|34=7|50=TID|57=SID|37=1|11=2017-08-23_4a59962d-a2bf-49e0-8c73-9338ee829c77|17=5|150=F|39=2|581=1|55=APPL|54=2|38=10|40=2|44=4543|151=0|14=10|60=20170823-08:34:20|1030=I|10=082|
20170823-08:34:50.156 : 8=FIXT.1.1|9=49|35=0|34=4|49=DBL|52=20170823-08:34:50.145|56=BME|10=213|
20170823-08:34:51.586 : 8=FIXT.1.1|9=63|35=0|49=BME|56=DBL|52=20170823-08:34:51.586|34=8|50=TID|57=SID|10=237|
20170823-08:35:20.171 : 8=FIXT.1.1|9=49|35=0|34=5|49=DBL|52=20170823-08:35:20.170|56=BME|10=210|
20170823-08:35:22.617 : 8=FIXT.1.1|9=63|35=0|49=BME|56=DBL|52=20170823-08:35:22.616|34=9|50=TID|57=SID|10=231|
20170823-11:18:44.749 : 8=FIXT.1.1|9=98|35=A|34=1|49=DBL|50=SID|52=20170823-11:18:44.741|56=BME|57=TID|98=0|108=30|141=Y|1137=4|1408=T4.0|10=107|
20170823-11:18:44.759 : 8=FIXT.1.1|9=98|35=A|49=BME|56=DBL|52=20170823-11:18:44.758|34=1|50=TID|57=SID|98=0|108=30|141=Y|1137=9|1408=T4.0|10=120|
20170823-11:19:14.945 : 8=FIXT.1.1|9=49|35=0|34=2|49=DBL|52=20170823-11:19:14.931|56=BME|10=211|
20170823-11:19:15.789 : 8=FIXT.1.1|9=63|35=0|49=BME|56=DBL|52=20170823-11:19:15.789|34=2|50=TID|57=SID|10=233|
20170823-11:19:44.221 : 8=FIXT.1.1|9=49|35=0|34=3|49=DBL|52=20170823-11:19:44.219|56=BME|10=214|
20170823-11:19:46.824 : 8=FIXT.1.1|9=63|35=0|49=BME|56=DBL|52=20170823-11:19:46.824|34=3|50=TID|57=SID|10=228|
20170823-11:23:11.766 : 8=FIXT.1.1|9=98|35=A|34=1|49=DBL|50=SID|52=20170823-11:23:11.759|56=BME|57=TID|98=0|108=30|141=Y|1137=4|1408=T4.0|10=106|
20170823-11:23:11.775 : 8=FIXT.1.1|9=98|35=A|49=BME|56=DBL|52=20170823-11:23:11.775|34=1|50=TID|57=SID|98=0|108=30|141=Y|1137=9|1408=T4.0|10=109|
20170823-11:24:40.581 : 8=FIXT.1.1|9=98|35=A|34=1|49=DBL|50=SID|52=20170823-11:24:40.574|56=BME|57=TID|98=0|108=30|141=Y|1137=4|1408=T4.0|10=104|
20170823-11:24:40.582 : 8=FIXT.1.1|9=98|35=A|49=BME|56=DBL|52=20170823-11:24:40.581|34=1|50=TID|57=SID|98=0|108=30|141=Y|1137=9|1408=T4.0|10=107|
20170823-11:25:10.005 : 8=FIXT.1.1|9=49|35=0|34=2|49=DBL|52=20170823-11:25:10.004|56=BME|10=195|
20170823-11:25:11.616 : 8=FIXT.1.1|9=63|35=0|49=BME|56=DBL|52=20170823-11:25:11.616|34=2|50=TID|57=SID|10=215|
20170823-11:25:40.065 : 8=FIXT.1.1|9=49|35=0|34=3|49=DBL|52=20170823-11:25:40.062|56=BME|10=203|
20170823-11:25:42.658 : 8=FIXT.1.1|9=63|35=0|49=BME|56=DBL|52=20170823-11:25:42.657|34=3|50=TID|57=SID|10=225|
20170823-11:26:10.219 : 8=FIXT.1.1|9=49|35=0|34=4|49=DBL|52=20170823-11:26:10.219|56=BME|10=206|
20170823-11:26:13.699 : 8=FIXT.1.1|9=63|35=0|49=BME|56=DBL|52=20170823-11:26:13.698|34=4|50=TID|57=SID|10=230|
20170823-11:26:40.132 : 8=FIXT.1.1|9=49|35=0|34=5|49=DBL|52=20170823-11:26:40.124|56=BME|10=205|
20170823-11:26:44.739 : 8=FIXT.1.1|9=63|35=0|49=BME|56=DBL|52=20170823-11:26:44.738|34=5|50=TID|57=SID|10=230|
20170823-11:27:10.045 : 8=FIXT.1.1|9=49|35=0|34=6|49=DBL|52=20170823-11:27:10.044|56=BME|10=205|
20170823-11:27:15.772 : 8=FIXT.1.1|9=63|35=0|49=BME|56=DBL|52=20170823-11:27:15.771|34=6|50=TID|57=SID|10=227|
20170823-11:28:14.922 : 8=FIXT.1.1|9=98|35=A|34=1|49=DBL|50=SID|52=20170823-11:28:14.899|56=BME|57=TID|98=0|108=30|141=Y|1137=4|1408=T4.0|10=119|
20170823-11:28:14.924 : 8=FIXT.1.1|9=98|35=A|49=BME|56=DBL|52=20170823-11:28:14.924|34=1|50=TID|57=SID|98=0|108=30|141=Y|1137=9|1408=T4.0|10=113|
20170823-11:28:44.475 : 8=FIXT.1.1|9=49|35=0|34=2|49=DBL|52=20170823-11:28:44.475|56=BME|10=217|
20170823-11:28:45.961 : 8=FIXT.1.1|9=63|35=0|49=BME|56=DBL|52=20170823-11:28:45.961|34=2|50=TID|57=SID|10=228|
20170823-11:29:14.499 : 8=FIXT.1.1|9=49|35=0|34=3|49=DBL|52=20170823-11:29:14.491|56=BME|10=214|
20170823-11:29:16.989 : 8=FIXT.1.1|9=63|35=0|49=BME|56=DBL|52=20170823-11:29:16.989|34=3|50=TID|57=SID|10=238|
20170823-11:29:44.027 : 8=FIXT.1.1|9=49|35=0|34=4|49=DBL|52=20170823-11:29:44.027|56=BME|10=213|
20170823-11:29:47.032 : 8=FIXT.1.1|9=63|35=0|49=BME|56=DBL|52=20170823-11:29:47.015|34=4|50=TID|57=SID|10=223|
20170823-11:30:14.727 : 8=FIXT.1.1|9=49|35=0|34=5|49=DBL|52=20170823-11:30:14.725|56=BME|10=208|
20170823-11:30:18.045 : 8=FIXT.1.1|9=63|35=0|49=BME|56=DBL|52=20170823-11:30:18.045|34=5|50=TID|57=SID|10=217|
20170823-11:30:44.778 : 8=FIXT.1.1|9=49|35=0|34=6|49=DBL|52=20170823-11:30:44.778|56=BME|10=220|
20170823-11:30:49.079 : 8=FIXT.1.1|9=63|35=0|49=BME|56=DBL|52=20170823-11:30:49.079|34=6|50=TID|57=SID|10=229|
20170823-11:31:14.344 : 8=FIXT.1.1|9=49|35=0|34=7|49=DBL|52=20170823-11:31:14.338|56=BME|10=211|
20170823-11:31:20.114 : 8=FIXT.1.1|9=63|35=0|49=BME|56=DBL|52=20170823-11:31:20.113|34=7|50=TID|57=SID|10=209|
20170823-11:31:44.007 : 8=FIXT.1.1|9=49|35=0|34=8|49=DBL|52=20170823-11:31:44.006|56=BME|10=207|
20170823-11:31:51.147 : 8=FIXT.1.1|9=63|35=0|49=BME|56=DBL|52=20170823-11:31:51.147|34=8|50=TID|57=SID|10=221|
20170823-11:34:03.789 : 8=FIXT.1.1|9=98|35=A|34=1|49=DBL|50=SID|52=20170823-11:34:03.784|56=BME|57=TID|98=0|108=30|141=Y|1137=4|1408=T4.0|10=107|
20170823-11:34:03.791 : 8=FIXT.1.1|9=98|35=A|49=BME|56=DBL|52=20170823-11:34:03.789|34=1|50=TID|57=SID|98=0|108=30|141=Y|1137=9|1408=T4.0|10=117|
20170823-11:34:33.870 : 8=FIXT.1.1|9=49|35=0|34=2|49=DBL|52=20170823-11:34:33.865|56=BME|10=215|
20170823-11:34:34.825 : 8=FIXT.1.1|9=63|35=0|49=BME|56=DBL|52=20170823-11:34:34.825|34=2|50=TID|57=SID|10=222|
20170823-11:35:03.129 : 8=FIXT.1.1|9=49|35=0|34=3|49=DBL|52=20170823-11:35:03.129|56=BME|10=207|
20170823-11:35:05.859 : 8=FIXT.1.1|9=63|35=0|49=BME|56=DBL|52=20170823-11:35:05.859|34=3|50=TID|57=SID|10=229|
20170823-11:35:33.389 : 8=FIXT.1.1|9=49|35=0|34=4|49=DBL|52=20170823-11:35:33.383|56=BME|10=213|
20170823-11:35:33.731 : 8=FIXT.1.1|9=49|35=5|34=5|49=DBL|52=20170823-11:35:33.731|56=BME|10=216|
20170823-11:35:33.731 : 8=FIXT.1.1|9=63|35=5|49=BME|56=DBL|52=20170823-11:35:33.731|34=4|50=TID|57=SID|10=225|
20170823-13:16:25.996 : 8=FIXT.1.1|9=98|35=A|34=1|49=DBL|50=SID|52=20170823-13:16:25.989|56=BME|57=TID|98=0|108=30|141=Y|1137=4|1408=T4.0|10=120|
20170823-13:16:26.003 : 8=FIXT.1.1|9=98|35=A|49=BME|56=DBL|52=20170823-13:16:25.001|34=1|50=TID|57=SID|98=0|108=30|141=Y|1137=9|1408=T4.0|10=100|
20170823-13:16:55.434 : 8=FIXT.1.1|9=49|35=0|34=2|49=DBL|52=20170823-13:16:55.432|56=BME|10=211|
20170823-13:16:56.028 : 8=FIXT.1.1|9=63|35=0|49=BME|56=DBL|52=20170823-13:16:56.027|34=2|50=TID|57=SID|10=222|
20170823-13:16:56.763 : 8=FIXT.1.1|9=49|35=5|34=3|49=DBL|52=20170823-13:16:56.763|56=BME|10=225|
20170823-13:16:56.763 : 8=FIXT.1.1|9=63|35=5|49=BME|56=DBL|52=20170823-13:16:56.763|34=3|50=TID|57=SID|10=235|
20170823-13:31:27.780 : 8=FIXT.1.1|9=98|35=A|34=1|49=DBL|50=SID|52=20170823-13:31:27.778|56=BME|57=TID|98=0|108=30|141=Y|1137=4|1408=T4.0|10=115|
20170823-13:31:27.784 : 8=FIXT.1.1|9=98|35=A|49=BME|56=DBL|52=20170823-13:31:27.781|34=1|50=TID|57=SID|98=0|108=30|141=Y|1137=9|1408=T4.0|10=114|
20170823-13:31:57.804 : 8=FIXT.1.1|9=49|35=0|34=2|49=DBL|52=20170823-13:31:57.794|56=BME|10=221|
20170823-13:31:58.811 : 8=FIXT.1.1|9=63|35=0|49=BME|56=DBL|52=20170823-13:31:58.811|34=2|50=TID|57=SID|10=222|
20170823-13:32:27.007 : 8=FIXT.1.1|9=49|35=0|34=3|49=DBL|52=20170823-13:32:27.003|56=BME|10=203|
20170823-13:32:29.842 : 8=FIXT.1.1|9=63|35=0|49=BME|56=DBL|52=20170823-13:32:29.842|34=3|50=TID|57=SID|10=226|
20170823-13:32:57.451 : 8=FIXT.1.1|9=49|35=0|34=4|49=DBL|52=20170823-13:32:57.451|56=BME|10=214|
20170823-13:33:00.871 : 8=FIXT.1.1|9=63|35=0|49=BME|56=DBL|52=20170823-13:33:00.871|34=4|50=TID|57=SID|10=219|
20170823-13:33:27.314 : 8=FIXT.1.1|9=49|35=0|34=5|49=DBL|52=20170823-13:33:27.310|56=BME|10=207|
20170823-13:33:31.904 : 8=FIXT.1.1|9=63|35=0|49=BME|56=DBL|52=20170823-13:33:31.904|34=5|50=TID|57=SID|10=221|
20170823-13:33:57.759 : 8=FIXT.1.1|9=49|35=0|34=6|49=DBL|52=20170823-13:33:57.759|56=BME|10=228|
20170823-13:34:02.935 : 8=FIXT.1.1|9=63|35=0|49=BME|56=DBL|52=20170823-13:34:02.934|34=6|50=TID|57=SID|10=224|
20170823-13:34:18.934 : 8=FIXT.1.1|9=98|35=A|34=1|49=DBL|50=SID|52=20170823-13:34:18.927|56=BME|57=TID|98=0|108=30|141=Y|1137=4|1408=T4.0|10=114|
20170823-13:34:18.934 : 8=FIXT.1.1|9=98|35=A|49=BME|56=DBL|52=20170823-13:34:18.934|34=1|50=TID|57=SID|98=0|108=30|141=Y|1137=9|1408=T4.0|10=117|
20170823-13:34:48.021 : 8=FIXT.1.1|9=49|35=0|34=2|49=DBL|52=20170823-13:34:48.018|56=BME|10=213|
20170823-13:34:49.966 : 8=FIXT.1.1|9=63|35=0|49=BME|56=DBL|52=20170823-13:34:49.966|34=2|50=TID|57=SID|10=236|
20170823-13:35:54.028 : 8=FIXT.1.1|9=98|35=A|34=1|49=DBL|50=SID|52=20170823-13:35:54.022|56=BME|57=TID|98=0|108=30|141=Y|1137=4|1408=T4.0|10=101|
20170823-13:35:54.030 : 8=FIXT.1.1|9=98|35=A|49=BME|56=DBL|52=20170823-13:35:54.028|34=1|50=TID|57=SID|98=0|108=30|141=Y|1137=9|1408=T4.0|10=112|
20170823-13:36:03.196 : 8=FIXT.1.1|9=49|35=5|34=2|49=DBL|52=20170823-13:36:03.195|56=BME|10=217|
20170823-13:36:03.196 : 8=FIXT.1.1|9=63|35=5|49=BME|56=DBL|52=20170823-13:36:03.196|34=2|50=TID|57=SID|10=228|
20170823-13:41:05.743 : 8=FIXT.1.1|9=98|35=A|34=1|49=DBL|50=SID|52=20170823-13:41:05.736|56=BME|57=TID|98=0|108=30|141=Y|1137=4|1408=T4.0|10=106|
20170823-13:41:05.744 : 8=FIXT.1.1|9=98|35=A|49=BME|56=DBL|52=20170823-13:41:05.743|34=1|50=TID|57=SID|98=0|108=30|141=Y|1137=9|1408=T4.0|10=109|
20170823-13:41:35.844 : 8=FIXT.1.1|9=49|35=0|34=2|49=DBL|52=20170823-13:41:35.844|56=BME|10=214|
20170823-13:41:36.777 : 8=FIXT.1.1|9=63|35=0|49=BME|56=DBL|52=20170823-13:41:36.774|34=2|50=TID|57=SID|10=227|
20170823-13:42:05.090 : 8=FIXT.1.1|9=49|35=0|34=3|49=DBL|52=20170823-13:42:05.090|56=BME|10=206|
20170823-13:42:07.802 : 8=FIXT.1.1|9=63|35=0|49=BME|56=DBL|52=20170823-13:42:07.802|34=3|50=TID|57=SID|10=219|
20170823-13:42:35.150 : 8=FIXT.1.1|9=49|35=0|34=4|49=DBL|52=20170823-13:42:35.148|56=BME|10=214|
20170823-13:42:38.832 : 8=FIXT.1.1|9=63|35=0|49=BME|56=DBL|52=20170823-13:42:38.832|34=4|50=TID|57=SID|10=227|
20170823-13:43:05.417 : 8=FIXT.1.1|9=49|35=0|34=5|49=DBL|52=20170823-13:43:05.414|56=BME|10=209|
20170823-13:43:09.865 : 8=FIXT.1.1|9=63|35=0|49=BME|56=DBL|52=20170823-13:43:09.864|34=5|50=TID|57=SID|10=232|
20170823-13:43:42.756 : 8=FIXT.1.1|9=98|35=A|34=1|49=DBL|50=SID|52=20170823-13:43:42.756|56=BME|57=TID|98=0|108=30|141=Y|1137=4|1408=T4.0|10=111|
20170823-13:43:42.757 : 8=FIXT.1.1|9=98|35=A|49=BME|56=DBL|52=20170823-13:43:42.757|34=1|50=TID|57=SID|98=0|108=30|141=Y|1137=9|1408=T4.0|10=117|
20170823-13:43:56.666 : 8=FIXT.1.1|9=179|35=D|34=2|49=DBL|52=20170823-13:43:56.665|56=BME|1137=9|11=2017-08-23_41c84eab-c207-4c15-b922-7b6caf0a5a16|21=1|38=223|40=2|44=4543|54=2|55=APPL|60=20170823-13:43:56|581=1|1030=I|10=090|
20170823-13:43:56.667 : 8=FIXT.1.1|9=179|35=D|34=3|49=DBL|52=20170823-13:43:56.667|56=BME|1137=9|11=2017-08-23_8e90e2f9-537e-4b40-8f4f-e64e81558695|21=1|38=223|40=2|44=4543|54=1|55=APPL|60=20170823-13:43:56|581=1|1030=I|10=214|
20170823-13:43:56.685 : 8=FIXT.1.1|9=215|35=8|49=BME|56=DBL|52=20170823-13:43:56.682|34=2|50=TID|57=SID|37=1|11=2017-08-23_41c84eab-c207-4c15-b922-7b6caf0a5a16|17=0|150=A|39=A|581=1|55=APPL|54=2|38=223|40=2|44=4543|151=223|14=0|60=20170823-13:43:56|1030=I|10=043|
20170823-13:43:56.759 : 8=FIXT.1.1|9=215|35=8|49=BME|56=DBL|52=20170823-13:43:56.683|34=3|50=TID|57=SID|37=2|11=2017-08-23_8e90e2f9-537e-4b40-8f4f-e64e81558695|17=1|150=A|39=A|581=1|55=APPL|54=1|38=223|40=2|44=4543|151=223|14=0|60=20170823-13:43:56|1030=I|10=168|
20170823-13:43:56.838 : 8=FIXT.1.1|9=212|35=8|49=BME|56=DBL|52=20170823-13:43:56.692|34=4|50=TID|57=SID|37=1|11=2017-08-23_41c84eab-c207-4c15-b922-7b6caf0a5a16|17=2|150=0|39=0|581=1|55=APPL|54=2|38=223|40=2|44=0|151=223|14=0|60=20170823-13:43:56|1030=I|10=107|
20170823-13:43:56.894 : 8=FIXT.1.1|9=212|35=8|49=BME|56=DBL|52=20170823-13:43:56.693|34=5|50=TID|57=SID|37=2|11=2017-08-23_8e90e2f9-537e-4b40-8f4f-e64e81558695|17=3|150=0|39=0|581=1|55=APPL|54=1|38=223|40=2|44=0|151=223|14=0|60=20170823-13:43:56|1030=I|10=232|
20170823-13:43:56.979 : 8=FIXT.1.1|9=215|35=8|49=BME|56=DBL|52=20170823-13:43:56.694|34=6|50=TID|57=SID|37=2|11=2017-08-23_8e90e2f9-537e-4b40-8f4f-e64e81558695|17=4|150=F|39=2|581=1|55=APPL|54=1|38=223|40=2|44=4543|151=0|14=223|60=20170823-13:43:56|1030=I|10=166|
20170823-13:43:57.036 : 8=FIXT.1.1|9=215|35=8|49=BME|56=DBL|52=20170823-13:43:56.694|34=7|50=TID|57=SID|37=1|11=2017-08-23_41c84eab-c207-4c15-b922-7b6caf0a5a16|17=5|150=F|39=2|581=1|55=APPL|54=2|38=223|40=2|44=4543|151=0|14=223|60=20170823-13:43:56|1030=I|10=046|
20170823-13:44:26.061 : 8=FIXT.1.1|9=49|35=0|34=4|49=DBL|52=20170823-13:44:26.061|56=BME|10=210|
20170823-13:44:27.803 : 8=FIXT.1.1|9=63|35=0|49=BME|56=DBL|52=20170823-13:44:27.803|34=8|50=TID|57=SID|10=229|
20170823-13:44:28.100 : 8=FIXT.1.1|9=178|35=D|34=5|49=DBL|52=20170823-13:44:28.100|56=BME|1137=9|11=2017-08-23_914f588d-8ce3-456d-808f-f0bf63bc0af1|21=1|38=223|40=2|44=321|54=2|55=APPL|60=20170823-13:44:28|581=1|1030=I|10=052|
20170823-13:44:28.102 : 8=FIXT.1.1|9=214|35=8|49=BME|56=DBL|52=20170823-13:44:28.101|34=9|50=TID|57=SID|37=3|11=2017-08-23_914f588d-8ce3-456d-808f-f0bf63bc0af1|17=6|150=A|39=A|581=1|55=APPL|54=2|38=223|40=2|44=321|151=223|14=0|60=20170823-13:44:28|1030=I|10=019|
20170823-13:44:28.104 : 8=FIXT.1.1|9=178|35=D|34=6|49=DBL|52=20170823-13:44:28.104|56=BME|1137=9|11=2017-08-23_6b8f63e0-934b-42b3-bdce-e908426e4e45|21=1|38=223|40=2|44=321|54=1|55=APPL|60=20170823-13:44:28|581=1|1030=I|10=003|
20170823-13:44:28.163 : 8=FIXT.1.1|9=213|35=8|49=BME|56=DBL|52=20170823-13:44:28.101|34=10|50=TID|57=SID|37=3|11=2017-08-23_914f588d-8ce3-456d-808f-f0bf63bc0af1|17=7|150=0|39=0|581=1|55=APPL|54=2|38=223|40=2|44=0|151=223|14=0|60=20170823-13:44:28|1030=I|10=179|
20170823-13:44:28.219 : 8=FIXT.1.1|9=215|35=8|49=BME|56=DBL|52=20170823-13:44:28.106|34=11|50=TID|57=SID|37=4|11=2017-08-23_6b8f63e0-934b-42b3-bdce-e908426e4e45|17=8|150=A|39=A|581=1|55=APPL|54=1|38=223|40=2|44=321|151=223|14=0|60=20170823-13:44:28|1030=I|10=015|
20170823-13:44:28.271 : 8=FIXT.1.1|9=213|35=8|49=BME|56=DBL|52=20170823-13:44:28.106|34=12|50=TID|57=SID|37=4|11=2017-08-23_6b8f63e0-934b-42b3-bdce-e908426e4e45|17=9|150=0|39=0|581=1|55=APPL|54=1|38=223|40=2|44=0|151=223|14=0|60=20170823-13:44:28|1030=I|10=135|
20170823-13:44:28.314 : 8=FIXT.1.1|9=216|35=8|49=BME|56=DBL|52=20170823-13:44:28.107|34=13|50=TID|57=SID|37=4|11=2017-08-23_6b8f63e0-934b-42b3-bdce-e908426e4e45|17=10|150=F|39=2|581=1|55=APPL|54=1|38=223|40=2|44=321|151=0|14=223|60=20170823-13:44:28|1030=I|10=050|
20170823-13:44:28.362 : 8=FIXT.1.1|9=216|35=8|49=BME|56=DBL|52=20170823-13:44:28.107|34=14|50=TID|57=SID|37=3|11=2017-08-23_914f588d-8ce3-456d-808f-f0bf63bc0af1|17=11|150=F|39=2|581=1|55=APPL|54=2|38=223|40=2|44=321|151=0|14=223|60=20170823-13:44:28|1030=I|10=105|
20170823-13:44:58.848 : 8=FIXT.1.1|9=49|35=0|34=7|49=DBL|52=20170823-13:44:58.848|56=BME|10=231|
20170823-13:44:59.834 : 8=FIXT.1.1|9=64|35=0|49=BME|56=DBL|52=20170823-13:44:59.834|34=15|50=TID|57=SID|10=029|
20170823-13:45:28.339 : 8=FIXT.1.1|9=49|35=0|34=8|49=DBL|52=20170823-13:45:28.339|56=BME|10=225|
20170823-13:45:30.864 : 8=FIXT.1.1|9=64|35=0|49=BME|56=DBL|52=20170823-13:45:30.863|34=16|50=TID|57=SID|10=022|
20170823-13:45:51.277 : 8=FIXT.1.1|9=98|35=A|34=1|49=DBL|50=SID|52=20170823-13:45:51.276|56=BME|57=TID|98=0|108=30|141=Y|1137=4|1408=T4.0|10=110|
20170823-13:45:51.279 : 8=FIXT.1.1|9=98|35=A|49=BME|56=DBL|52=20170823-13:45:51.278|34=1|50=TID|57=SID|98=0|108=30|141=Y|1137=9|1408=T4.0|10=117|
20170823-13:46:03.488 : 8=FIXT.1.1|9=178|35=D|34=2|49=DBL|52=20170823-13:46:03.488|56=BME|1137=9|11=2017-08-23_5cad0389-71ba-4338-b4e2-9d873cd035cd|21=1|38=223|40=2|44=321|54=2|55=APPL|60=20170823-13:46:03|581=1|1030=I|10=253|
20170823-13:46:03.492 : 8=FIXT.1.1|9=214|35=8|49=BME|56=DBL|52=20170823-13:46:03.489|34=2|50=TID|57=SID|37=1|11=2017-08-23_5cad0389-71ba-4338-b4e2-9d873cd035cd|17=0|150=A|39=A|581=1|55=APPL|54=2|38=223|40=2|44=321|151=223|14=0|60=20170823-13:46:03|1030=I|10=208|
20170823-13:46:03.493 : 8=FIXT.1.1|9=178|35=D|34=3|49=DBL|52=20170823-13:46:03.493|56=BME|1137=9|11=2017-08-23_1a057551-bd2f-4f7e-8687-a69f0928099e|21=1|38=223|40=2|44=321|54=1|55=APPL|60=20170823-13:46:03|581=1|1030=I|10=131|
20170823-13:46:03.572 : 8=FIXT.1.1|9=212|35=8|49=BME|56=DBL|52=20170823-13:46:03.490|34=3|50=TID|57=SID|37=1|11=2017-08-23_5cad0389-71ba-4338-b4e2-9d873cd035cd|17=1|150=0|39=0|581=1|55=APPL|54=2|38=223|40=2|44=0|151=223|14=0|60=20170823-13:46:03|1030=I|10=064|
20170823-13:46:03.638 : 8=FIXT.1.1|9=214|35=8|49=BME|56=DBL|52=20170823-13:46:03.494|34=4|50=TID|57=SID|37=2|11=2017-08-23_1a057551-bd2f-4f7e-8687-a69f0928099e|17=2|150=A|39=A|581=1|55=APPL|54=1|38=223|40=2|44=321|151=223|14=0|60=20170823-13:46:03|1030=I|10=090|
20170823-13:46:03.679 : 8=FIXT.1.1|9=212|35=8|49=BME|56=DBL|52=20170823-13:46:03.494|34=5|50=TID|57=SID|37=2|11=2017-08-23_1a057551-bd2f-4f7e-8687-a69f0928099e|17=3|150=0|39=0|581=1|55=APPL|54=1|38=223|40=2|44=0|151=223|14=0|60=20170823-13:46:03|1030=I|10=210|
20170823-13:46:03.718 : 8=FIXT.1.1|9=214|35=8|49=BME|56=DBL|52=20170823-13:46:03.494|34=6|50=TID|57=SID|37=2|11=2017-08-23_1a057551-bd2f-4f7e-8687-a69f0928099e|17=4|150=F|39=2|581=1|55=APPL|54=1|38=223|40=2|44=321|151=0|14=223|60=20170823-13:46:03|1030=I|10=084|
20170823-13:46:03.768 : 8=FIXT.1.1|9=214|35=8|49=BME|56=DBL|52=20170823-13:46:03.494|34=7|50=TID|57=SID|37=1|11=2017-08-23_5cad0389-71ba-4338-b4e2-9d873cd035cd|17=5|150=F|39=2|581=1|55=APPL|54=2|38=223|40=2|44=321|151=0|14=223|60=20170823-13:46:03|1030=I|10=204|
20170823-13:46:15.553 : 8=FIXT.1.1|9=179|35=D|34=4|49=DBL|52=20170823-13:46:15.553|56=BME|1137=9|11=2017-08-23_923cfa67-8dc9-4da8-9309-559ba71b2322|21=1|38=123|40=2|44=4543|54=2|55=APPL|60=20170823-13:46:15|581=1|1030=I|10=228|
20170823-13:46:15.555 : 8=FIXT.1.1|9=215|35=8|49=BME|56=DBL|52=20170823-13:46:15.554|34=8|50=TID|57=SID|37=3|11=2017-08-23_923cfa67-8dc9-4da8-9309-559ba71b2322|17=6|150=A|39=A|581=1|55=APPL|54=2|38=123|40=2|44=4543|151=123|14=0|60=20170823-13:46:15|1030=I|10=194|
20170823-13:46:15.557 : 8=FIXT.1.1|9=179|35=D|34=5|49=DBL|52=20170823-13:46:15.557|56=BME|1137=9|11=2017-08-23_42e20725-e87c-49c0-bdd1-4ad778173db3|21=1|38=123|40=2|44=4543|54=1|55=APPL|60=20170823-13:46:15|581=1|1030=I|10=012|
20170823-13:46:15.614 : 8=FIXT.1.1|9=212|35=8|49=BME|56=DBL|52=20170823-13:46:15.554|34=9|50=TID|57=SID|37=3|11=2017-08-23_923cfa67-8dc9-4da8-9309-559ba71b2322|17=7|150=0|39=0|581=1|55=APPL|54=2|38=123|40=2|44=0|151=123|14=0|60=20170823-13:46:15|1030=I|10=255|
20170823-13:46:15.709 : 8=FIXT.1.1|9=216|35=8|49=BME|56=DBL|52=20170823-13:46:15.557|34=10|50=TID|57=SID|37=4|11=2017-08-23_42e20725-e87c-49c0-bdd1-4ad778173db3|17=8|150=A|39=A|581=1|55=APPL|54=1|38=123|40=2|44=4543|151=123|14=0|60=20170823-13:46:15|1030=I|10=021|
20170823-13:46:15.775 : 8=FIXT.1.1|9=213|35=8|49=BME|56=DBL|52=20170823-13:46:15.557|34=11|50=TID|57=SID|37=4|11=2017-08-23_42e20725-e87c-49c0-bdd1-4ad778173db3|17=9|150=0|39=0|581=1|55=APPL|54=1|38=123|40=2|44=0|151=123|14=0|60=20170823-13:46:15|1030=I|10=082|
20170823-13:46:15.825 : 8=FIXT.1.1|9=217|35=8|49=BME|56=DBL|52=20170823-13:46:15.558|34=12|50=TID|57=SID|37=4|11=2017-08-23_42e20725-e87c-49c0-bdd1-4ad778173db3|17=10|150=F|39=2|581=1|55=APPL|54=1|38=123|40=2|44=4543|151=0|14=123|60=20170823-13:46:15|1030=I|10=056|
20170823-13:46:15.897 : 8=FIXT.1.1|9=217|35=8|49=BME|56=DBL|52=20170823-13:46:15.558|34=13|50=TID|57=SID|37=3|11=2017-08-23_923cfa67-8dc9-4da8-9309-559ba71b2322|17=11|150=F|39=2|581=1|55=APPL|54=2|38=123|40=2|44=4543|151=0|14=123|60=20170823-13:46:15|1030=I|10=022|
20170823-13:46:25.338 : 8=FIXT.1.1|9=49|35=5|34=6|49=DBL|52=20170823-13:46:25.337|56=BME|10=224|
20170823-13:46:25.338 : 8=FIXT.1.1|9=64|35=5|49=BME|56=DBL|52=20170823-13:46:25.338|34=14|50=TID|57=SID|10=027|
20170824-09:15:03.758 : 8=FIXT.1.1|9=98|35=A|34=1|49=DBL|50=SID|52=20170824-09:15:03.754|56=BME|57=TID|98=0|108=30|141=Y|1137=4|1408=T4.0|10=111|
20170824-09:15:03.795 : 8=FIXT.1.1|9=98|35=A|49=BME|56=DBL|52=20170824-09:15:03.785|34=1|50=TID|57=SID|98=0|108=30|141=Y|1137=9|1408=T4.0|10=120|
20170824-09:15:33.147 : 8=FIXT.1.1|9=49|35=0|34=2|49=DBL|52=20170824-09:15:33.147|56=BME|10=215|
20170824-09:15:34.817 : 8=FIXT.1.1|9=63|35=0|49=BME|56=DBL|52=20170824-09:15:34.817|34=2|50=TID|57=SID|10=230|
20170824-09:17:04.163 : 8=FIXT.1.1|9=98|35=A|34=1|49=DBL|50=SID|52=20170824-09:17:04.159|56=BME|57=TID|98=0|108=30|141=Y|1137=4|1408=T4.0|10=113|
20170824-09:17:04.173 : 8=FIXT.1.1|9=98|35=A|49=BME|56=DBL|52=20170824-09:17:04.164|34=1|50=TID|57=SID|98=0|108=30|141=Y|1137=9|1408=T4.0|10=114|
20170824-09:17:34.076 : 8=FIXT.1.1|9=49|35=0|34=2|49=DBL|52=20170824-09:17:34.073|56=BME|10=216|
20170824-09:17:35.192 : 8=FIXT.1.1|9=63|35=0|49=BME|56=DBL|52=20170824-09:17:35.192|34=2|50=TID|57=SID|10=229|
20170824-09:18:04.296 : 8=FIXT.1.1|9=49|35=0|34=3|49=DBL|52=20170824-09:18:04.296|56=BME|10=222|
20170824-09:18:06.218 : 8=FIXT.1.1|9=63|35=0|49=BME|56=DBL|52=20170824-09:18:06.218|34=3|50=TID|57=SID|10=228|
20170824-09:18:34.903 : 8=FIXT.1.1|9=49|35=0|34=4|49=DBL|52=20170824-09:18:34.903|56=BME|10=221|
20170824-09:18:37.246 : 8=FIXT.1.1|9=63|35=0|49=BME|56=DBL|52=20170824-09:18:37.246|34=4|50=TID|57=SID|10=234|
20170824-09:19:04.014 : 8=FIXT.1.1|9=49|35=0|34=5|49=DBL|52=20170824-09:19:04.014|56=BME|10=213|
20170824-09:19:08.271 : 8=FIXT.1.1|9=63|35=0|49=BME|56=DBL|52=20170824-09:19:08.271|34=5|50=TID|57=SID|10=232|
20170824-09:19:34.218 : 8=FIXT.1.1|9=49|35=0|34=6|49=DBL|52=20170824-09:19:34.218|56=BME|10=223|
20170824-09:19:39.300 : 8=FIXT.1.1|9=63|35=0|49=BME|56=DBL|52=20170824-09:19:39.300|34=6|50=TID|57=SID|10=230|
20170824-09:20:04.226 : 8=FIXT.1.1|9=49|35=0|34=7|49=DBL|52=20170824-09:20:04.225|56=BME|10=211|
20170824-09:20:10.329 : 8=FIXT.1.1|9=63|35=0|49=BME|56=DBL|52=20170824-09:20:10.329|34=7|50=TID|57=SID|10=223|
20170824-09:20:34.585 : 8=FIXT.1.1|9=49|35=0|34=8|49=DBL|52=20170824-09:20:34.585|56=BME|10=224|
20170824-09:20:41.355 : 8=FIXT.1.1|9=63|35=0|49=BME|56=DBL|52=20170824-09:20:41.355|34=8|50=TID|57=SID|10=227|
20170824-09:21:04.530 : 8=FIXT.1.1|9=49|35=0|34=9|49=DBL|52=20170824-09:21:04.530|56=BME|10=213|
20170824-09:21:12.384 : 8=FIXT.1.1|9=63|35=0|49=BME|56=DBL|52=20170824-09:21:12.384|34=9|50=TID|57=SID|10=229|
20170824-09:21:34.127 : 8=FIXT.1.1|9=50|35=0|34=10|49=DBL|52=20170824-09:21:34.127|56=BME|10=250|
20170824-09:21:43.408 : 8=FIXT.1.1|9=64|35=0|49=BME|56=DBL|52=20170824-09:21:43.408|34=10|50=TID|57=SID|10=015|
20170824-09:22:04.077 : 8=FIXT.1.1|9=50|35=0|34=11|49=DBL|52=20170824-09:22:04.071|56=BME|10=247|
20170824-09:22:14.434 : 8=FIXT.1.1|9=64|35=0|49=BME|56=DBL|52=20170824-09:22:14.434|34=11|50=TID|57=SID|10=014|
20170824-09:22:34.067 : 8=FIXT.1.1|9=50|35=0|34=12|49=DBL|52=20170824-09:22:34.067|56=BME|10=000|
20170824-09:22:45.463 : 8=FIXT.1.1|9=64|35=0|49=BME|56=DBL|52=20170824-09:22:45.462|34=12|50=TID|57=SID|10=020|
20170824-09:23:04.578 : 8=FIXT.1.1|9=50|35=0|34=13|49=DBL|52=20170824-09:23:04.578|56=BME|10=006|
20170824-09:23:16.487 : 8=FIXT.1.1|9=64|35=0|49=BME|56=DBL|52=20170824-09:23:16.487|34=13|50=TID|57=SID|10=027|
20170824-09:23:34.659 : 8=FIXT.1.1|9=50|35=0|34=14|49=DBL|52=20170824-09:23:34.659|56=BME|10=010|
20170824-09:23:47.511 : 8=FIXT.1.1|9=64|35=0|49=BME|56=DBL|52=20170824-09:23:47.511|34=14|50=TID|57=SID|10=020|
20170824-09:24:04.260 : 8=FIXT.1.1|9=50|35=0|34=15|49=DBL|52=20170824-09:24:04.260|56=BME|10=253|
20170824-09:24:18.539 : 8=FIXT.1.1|9=64|35=0|49=BME|56=DBL|52=20170824-09:24:18.539|34=15|50=TID|57=SID|10=030|
20170824-09:24:34.346 : 8=FIXT.1.1|9=50|35=0|34=16|49=DBL|52=20170824-09:24:34.346|56=BME|10=006|
20170824-09:24:49.569 : 8=FIXT.1.1|9=64|35=0|49=BME|56=DBL|52=20170824-09:24:49.568|34=16|50=TID|57=SID|10=037|
20170824-09:25:04.005 : 8=FIXT.1.1|9=50|35=0|34=17|49=DBL|52=20170824-09:25:04.005|56=BME|10=253|
20170824-09:25:20.601 : 8=FIXT.1.1|9=64|35=0|49=BME|56=DBL|52=20170824-09:25:20.601|34=17|50=TID|57=SID|10=016|
20170824-09:25:34.353 : 8=FIXT.1.1|9=50|35=0|34=18|49=DBL|52=20170824-09:25:34.353|56=BME|10=007|
20170824-09:25:51.627 : 8=FIXT.1.1|9=64|35=0|49=BME|56=DBL|52=20170824-09:25:51.627|34=18|50=TID|57=SID|10=029|
20170824-09:26:04.610 : 8=FIXT.1.1|9=50|35=0|34=19|49=DBL|52=20170824-09:26:04.610|56=BME|10=002|
20170824-09:26:22.653 : 8=FIXT.1.1|9=64|35=0|49=BME|56=DBL|52=20170824-09:26:22.652|34=19|50=TID|57=SID|10=027|
20170824-09:26:34.079 : 8=FIXT.1.1|9=50|35=0|34=20|49=DBL|52=20170824-09:26:34.074|56=BME|10=001|
20170824-09:26:53.682 : 8=FIXT.1.1|9=64|35=0|49=BME|56=DBL|52=20170824-09:26:53.681|34=20|50=TID|57=SID|10=025|
20170824-09:27:04.457 : 8=FIXT.1.1|9=50|35=0|34=21|49=DBL|52=20170824-09:27:04.457|56=BME|10=005|
20170824-09:27:24.714 : 8=FIXT.1.1|9=64|35=0|49=BME|56=DBL|52=20170824-09:27:24.714|34=21|50=TID|57=SID|10=022|
20170824-09:27:34.119 : 8=FIXT.1.1|9=50|35=0|34=22|49=DBL|52=20170824-09:27:34.112|56=BME|10=253|
20170824-09:27:55.747 : 8=FIXT.1.1|9=64|35=0|49=BME|56=DBL|52=20170824-09:27:55.747|34=22|50=TID|57=SID|10=033|
20170824-09:28:04.758 : 8=FIXT.1.1|9=50|35=0|34=23|49=DBL|52=20170824-09:28:04.758|56=BME|10=012|
20170824-09:28:26.779 : 8=FIXT.1.1|9=64|35=0|49=BME|56=DBL|52=20170824-09:28:26.779|34=23|50=TID|57=SID|10=038|
20170824-09:28:34.260 : 8=FIXT.1.1|9=50|35=0|34=24|49=DBL|52=20170824-09:28:34.260|56=BME|10=004|
20170824-09:28:57.805 : 8=FIXT.1.1|9=64|35=0|49=BME|56=DBL|52=20170824-09:28:57.804|34=24|50=TID|57=SID|10=032|
20170824-09:29:04.627 : 8=FIXT.1.1|9=50|35=0|34=25|49=DBL|52=20170824-09:29:04.627|56=BME|10=010|
20170824-09:29:28.835 : 8=FIXT.1.1|9=64|35=0|49=BME|56=DBL|52=20170824-09:29:28.835|34=25|50=TID|57=SID|10=036|
20170824-09:29:34.377 : 8=FIXT.1.1|9=50|35=0|34=26|49=DBL|52=20170824-09:29:34.377|56=BME|10=016|
20170824-09:29:59.870 : 8=FIXT.1.1|9=64|35=0|49=BME|56=DBL|52=20170824-09:29:59.870|34=26|50=TID|57=SID|10=040|
20170824-09:30:04.691 : 8=FIXT.1.1|9=50|35=0|34=27|49=DBL|52=20170824-09:30:04.690|56=BME|10=004|
20170824-09:30:30.902 : 8=FIXT.1.1|9=64|35=0|49=BME|56=DBL|52=20170824-09:30:30.901|34=27|50=TID|57=SID|10=017|
20170824-09:30:34.497 : 8=FIXT.1.1|9=50|35=0|34=28|49=DBL|52=20170824-09:30:34.497|56=BME|10=013|
20170824-09:31:01.933 : 8=FIXT.1.1|9=64|35=0|49=BME|56=DBL|52=20170824-09:31:01.932|34=28|50=TID|57=SID|10=021|
20170824-09:31:04.571 : 8=FIXT.1.1|9=50|35=0|34=29|49=DBL|52=20170824-09:31:04.571|56=BME|10=005|
20170824-09:31:32.961 : 8=FIXT.1.1|9=64|35=0|49=BME|56=DBL|52=20170824-09:31:32.961|34=29|50=TID|57=SID|10=028|
20170824-09:31:34.537 : 8=FIXT.1.1|9=50|35=0|34=30|49=DBL|52=20170824-09:31:34.537|56=BME|10=002|
20170824-09:32:03.992 : 8=FIXT.1.1|9=64|35=0|49=BME|56=DBL|52=20170824-09:32:03.991|34=30|50=TID|57=SID|10=022|
20170824-09:32:04.036 : 8=FIXT.1.1|9=50|35=0|34=31|49=DBL|52=20170824-09:32:04.036|56=BME|10=251|
20170824-09:32:34.023 : 8=FIXT.1.1|9=64|35=0|49=BME|56=DBL|52=20170824-09:32:34.022|34=31|50=TID|57=SID|10=012|
20170824-09:32:34.046 : 8=FIXT.1.1|9=50|35=0|34=32|49=DBL|52=20170824-09:32:34.046|56=BME|10=000|
20170824-09:33:04.484 : 8=FIXT.1.1|9=50|35=0|34=33|49=DBL|52=20170824-09:33:04.484|56=BME|10=005|
20170824-09:33:05.055 : 8=FIXT.1.1|9=64|35=0|49=BME|56=DBL|52=20170824-09:33:05.055|34=32|50=TID|57=SID|10=018|
20170824-09:33:34.442 : 8=FIXT.1.1|9=50|35=0|34=34|49=DBL|52=20170824-09:33:34.442|56=BME|10=003|
20170824-09:33:36.083 : 8=FIXT.1.1|9=64|35=0|49=BME|56=DBL|52=20170824-09:33:36.083|34=33|50=TID|57=SID|10=024|
20170824-09:34:04.402 : 8=FIXT.1.1|9=50|35=0|34=35|49=DBL|52=20170824-09:34:04.402|56=BME|10=254|
20170824-09:34:07.111 : 8=FIXT.1.1|9=64|35=0|49=BME|56=DBL|52=20170824-09:34:07.111|34=34|50=TID|57=SID|10=016|
20170824-09:34:34.707 : 8=FIXT.1.1|9=50|35=0|34=36|49=DBL|52=20170824-09:34:34.707|56=BME|10=010|
20170824-09:34:38.140 : 8=FIXT.1.1|9=64|35=0|49=BME|56=DBL|52=20170824-09:34:38.140|34=35|50=TID|57=SID|10=023|
20170824-09:35:04.761 : 8=FIXT.1.1|9=50|35=0|34=37|49=DBL|52=20170824-09:35:04.761|56=BME|10=009|
20170824-09:35:09.174 : 8=FIXT.1.1|9=64|35=0|49=BME|56=DBL|52=20170824-09:35:09.174|34=36|50=TID|57=SID|10=030|
20170824-09:35:34.796 : 8=FIXT.1.1|9=50|35=0|34=38|49=DBL|52=20170824-09:35:34.796|56=BME|10=021|
20170824-09:35:40.202 : 8=FIXT.1.1|9=64|35=0|49=BME|56=DBL|52=20170824-09:35:40.202|34=37|50=TID|57=SID|10=018|
20170824-09:36:04.874 : 8=FIXT.1.1|9=50|35=0|34=39|49=DBL|52=20170824-09:36:04.874|56=BME|10=017|
20170824-09:36:11.232 : 8=FIXT.1.1|9=64|35=0|49=BME|56=DBL|52=20170824-09:36:11.232|34=38|50=TID|57=SID|10=021|
20170824-09:36:34.026 : 8=FIXT.1.1|9=50|35=0|34=40|49=DBL|52=20170824-09:36:34.025|56=BME|10=000|
20170824-09:36:42.266 : 8=FIXT.1.1|9=64|35=0|49=BME|56=DBL|52=20170824-09:36:42.266|34=39|50=TID|57=SID|10=033|
20170824-09:37:04.065 : 8=FIXT.1.1|9=50|35=0|34=41|49=DBL|52=20170824-09:37:04.065|56=BME|10=003|
20170824-09:37:13.295 : 8=FIXT.1.1|9=64|35=0|49=BME|56=DBL|52=20170824-09:37:13.295|34=40|50=TID|57=SID|10=026|
20170824-09:37:34.030 : 8=FIXT.1.1|9=50|35=0|34=42|49=DBL|52=20170824-09:37:34.029|56=BME|10=007|
20170824-09:37:44.327 : 8=FIXT.1.1|9=64|35=0|49=BME|56=DBL|52=20170824-09:37:44.327|34=41|50=TID|57=SID|10=027|
20170824-09:38:04.083 : 8=FIXT.1.1|9=50|35=0|34=43|49=DBL|52=20170824-09:38:04.083|56=BME|10=006|
20170824-09:38:15.358 : 8=FIXT.1.1|9=64|35=0|49=BME|56=DBL|52=20170824-09:38:15.358|34=42|50=TID|57=SID|10=031|
20170824-09:38:34.056 : 8=FIXT.1.1|9=50|35=0|34=44|49=DBL|52=20170824-09:38:34.055|56=BME|10=009|
20170824-09:38:46.385 : 8=FIXT.1.1|9=64|35=0|49=BME|56=DBL|52=20170824-09:38:46.385|34=43|50=TID|57=SID|10=036|
20170824-09:39:04.014 : 8=FIXT.1.1|9=50|35=0|34=45|49=DBL|52=20170824-09:39:04.013|56=BME|10=002|
20170824-09:39:17.418 : 8=FIXT.1.1|9=64|35=0|49=BME|56=DBL|52=20170824-09:39:17.418|34=44|50=TID|57=SID|10=033|
20170824-09:39:34.033 : 8=FIXT.1.1|9=50|35=0|34=46|49=DBL|52=20170824-09:39:34.033|56=BME|10=008|
20170824-09:39:48.454 : 8=FIXT.1.1|9=64|35=0|49=BME|56=DBL|52=20170824-09:39:48.453|34=45|50=TID|57=SID|10=037|
20170824-09:40:04.095 : 8=FIXT.1.1|9=50|35=0|34=47|49=DBL|52=20170824-09:40:04.095|56=BME|10=006|
20170824-09:40:19.487 : 8=FIXT.1.1|9=64|35=0|49=BME|56=DBL|52=20170824-09:40:19.486|34=46|50=TID|57=SID|10=034|
20170824-09:40:34.113 : 8=FIXT.1.1|9=50|35=0|34=48|49=DBL|52=20170824-09:40:34.113|56=BME|10=001|
20170824-09:40:50.517 : 8=FIXT.1.1|9=64|35=0|49=BME|56=DBL|52=20170824-09:40:50.517|34=47|50=TID|57=SID|10=025|
20170824-09:41:04.068 : 8=FIXT.1.1|9=50|35=0|34=49|49=DBL|52=20170824-09:41:04.068|56=BME|10=009|
20170824-09:41:21.545 : 8=FIXT.1.1|9=64|35=0|49=BME|56=DBL|52=20170824-09:41:21.545|34=48|50=TID|57=SID|10=026|
20170824-09:41:34.977 : 8=FIXT.1.1|9=50|35=0|34=50|49=DBL|52=20170824-09:41:34.977|56=BME|10=013|
20170824-09:41:52.574 : 8=FIXT.1.1|9=64|35=0|49=BME|56=DBL|52=20170824-09:41:52.573|34=49|50=TID|57=SID|10=032|
20170824-09:42:04.596 : 8=FIXT.1.1|9=50|35=0|34=51|49=DBL|52=20170824-09:42:04.596|56=BME|10=009|
20170824-09:42:23.605 : 8=FIXT.1.1|9=64|35=0|49=BME|56=DBL|52=20170824-09:42:23.605|34=50|50=TID|57=SID|10=019|
20170824-09:42:34.543 : 8=FIXT.1.1|9=50|35=0|34=52|49=DBL|52=20170824-09:42:34.543|56=BME|10=005|
20170824-09:42:54.632 : 8=FIXT.1.1|9=64|35=0|49=BME|56=DBL|52=20170824-09:42:54.632|34=51|50=TID|57=SID|10=024|
20170824-09:43:04.555 : 8=FIXT.1.1|9=50|35=0|34=53|49=DBL|52=20170824-09:43:04.555|56=BME|10=007|
20170824-09:43:25.663 : 8=FIXT.1.1|9=64|35=0|49=BME|56=DBL|52=20170824-09:43:25.663|34=52|50=TID|57=SID|10=028|
20170824-09:43:34.619 : 8=FIXT.1.1|9=50|35=0|34=54|49=DBL|52=20170824-09:43:34.619|56=BME|10=012|
20170824-09:43:56.695 : 8=FIXT.1.1|9=64|35=0|49=BME|56=DBL|52=20170824-09:43:56.695|34=53|50=TID|57=SID|10=038|
20170824-09:44:04.595 : 8=FIXT.1.1|9=50|35=0|34=55|49=DBL|52=20170824-09:44:04.595|56=BME|10=014|
20170824-09:44:27.725 : 8=FIXT.1.1|9=64|35=0|49=BME|56=DBL|52=20170824-09:44:27.725|34=54|50=TID|57=SID|10=032|
20170824-09:44:34.685 : 8=FIXT.1.1|9=50|35=0|34=56|49=DBL|52=20170824-09:44:34.684|56=BME|10=017|
20170824-09:44:58.756 : 8=FIXT.1.1|9=64|35=0|49=BME|56=DBL|52=20170824-09:44:58.756|34=55|50=TID|57=SID|10=041|
20170824-09:45:04.641 : 8=FIXT.1.1|9=50|35=0|34=57|49=DBL|52=20170824-09:45:04.640|56=BME|10=008|
20170824-09:45:29.784 : 8=FIXT.1.1|9=64|35=0|49=BME|56=DBL|52=20170824-09:45:29.784|34=56|50=TID|57=SID|10=042|
20170824-09:45:34.773 : 8=FIXT.1.1|9=50|35=0|34=58|49=DBL|52=20170824-09:45:34.773|56=BME|10=019|
20170824-09:46:00.813 : 8=FIXT.1.1|9=64|35=0|49=BME|56=DBL|52=20170824-09:46:00.813|34=57|50=TID|57=SID|10=026|
20170824-09:46:04.739 : 8=FIXT.1.1|9=50|35=0|34=59|49=DBL|52=20170824-09:46:04.739|56=BME|10=020|
20170824-09:46:31.839 : 8=FIXT.1.1|9=64|35=0|49=BME|56=DBL|52=20170824-09:46:31.839|34=58|50=TID|57=SID|10=039|
20170824-09:46:34.679 : 8=FIXT.1.1|9=50|35=0|34=60|49=DBL|52=20170824-09:46:34.679|56=BME|10=018|
20170824-09:47:02.866 : 8=FIXT.1.1|9=64|35=0|49=BME|56=DBL|52=20170824-09:47:02.865|34=59|50=TID|57=SID|10=038|
20170824-09:47:04.591 : 8=FIXT.1.1|9=50|35=0|34=61|49=DBL|52=20170824-09:47:04.590|56=BME|10=009|
20170824-09:47:33.886 : 8=FIXT.1.1|9=64|35=0|49=BME|56=DBL|52=20170824-09:47:33.886|34=60|50=TID|57=SID|10=037|
20170824-09:47:34.549 : 8=FIXT.1.1|9=50|35=0|34=62|49=DBL|52=20170824-09:47:34.549|56=BME|10=017|
20170824-09:48:04.491 : 8=FIXT.1.1|9=50|35=0|34=63|49=DBL|52=20170824-09:48:04.491|56=BME|10=012|
20170824-09:48:04.909 : 8=FIXT.1.1|9=64|35=0|49=BME|56=DBL|52=20170824-09:48:04.909|34=61|50=TID|57=SID|10=033|
20170824-09:48:34.423 : 8=FIXT.1.1|9=50|35=0|34=64|49=DBL|52=20170824-09:48:34.423|56=BME|10=011|
20170824-09:48:35.932 : 8=FIXT.1.1|9=64|35=0|49=BME|56=DBL|52=20170824-09:48:35.932|34=62|50=TID|57=SID|10=034|
20170824-09:49:04.405 : 8=FIXT.1.1|9=50|35=0|34=65|49=DBL|52=20170824-09:49:04.405|56=BME|10=010|
20170824-09:49:06.955 : 8=FIXT.1.1|9=64|35=0|49=BME|56=DBL|52=20170824-09:49:06.955|34=63|50=TID|57=SID|10=039|
20170824-09:49:34.420 : 8=FIXT.1.1|9=50|35=0|34=66|49=DBL|52=20170824-09:49:34.420|56=BME|10=011|
20170824-09:49:37.976 : 8=FIXT.1.1|9=64|35=0|49=BME|56=DBL|52=20170824-09:49:37.976|34=64|50=TID|57=SID|10=047|
20170824-09:50:04.388 : 8=FIXT.1.1|9=50|35=0|34=67|49=DBL|52=20170824-09:50:04.388|56=BME|10=014|
20170824-09:50:09.000 : 8=FIXT.1.1|9=64|35=0|49=BME|56=DBL|52=20170824-09:50:08.999|34=65|50=TID|57=SID|10=043|
20170824-09:50:34.293 : 8=FIXT.1.1|9=50|35=0|34=68|49=DBL|52=20170824-09:50:34.293|56=BME|10=013|
20170824-09:50:39.024 : 8=FIXT.1.1|9=64|35=0|49=BME|56=DBL|52=20170824-09:50:39.024|34=66|50=TID|57=SID|10=027|
20170824-09:51:04.235 : 8=FIXT.1.1|9=50|35=0|34=69|49=DBL|52=20170824-09:51:04.235|56=BME|10=008|
20170824-09:51:10.051 : 8=FIXT.1.1|9=64|35=0|49=BME|56=DBL|52=20170824-09:51:10.051|34=67|50=TID|57=SID|10=018|
20170824-09:51:34.154 : 8=FIXT.1.1|9=50|35=0|34=70|49=DBL|52=20170824-09:51:34.154|56=BME|10=003|
20170824-09:51:41.075 : 8=FIXT.1.1|9=64|35=0|49=BME|56=DBL|52=20170824-09:51:41.075|34=68|50=TID|57=SID|10=029|
20170824-09:52:04.108 : 8=FIXT.1.1|9=50|35=0|34=71|49=DBL|52=20170824-09:52:04.108|56=BME|10=001|
20170824-09:52:12.103 : 8=FIXT.1.1|9=64|35=0|49=BME|56=DBL|52=20170824-09:52:12.103|34=69|50=TID|57=SID|10=021|
20170824-09:52:34.043 : 8=FIXT.1.1|9=50|35=0|34=72|49=DBL|52=20170824-09:52:34.043|56=BME|10=003|
20170824-09:52:43.126 : 8=FIXT.1.1|9=64|35=0|49=BME|56=DBL|52=20170824-09:52:43.126|34=70|50=TID|57=SID|10=022|
20170824-09:53:04.185 : 8=FIXT.1.1|9=50|35=0|34=73|49=DBL|52=20170824-09:53:04.185|56=BME|10=009|
20170824-09:53:14.154 : 8=FIXT.1.1|9=64|35=0|49=BME|56=DBL|52=20170824-09:53:14.153|34=71|50=TID|57=SID|10=022|
20170824-09:53:34.117 : 8=FIXT.1.1|9=50|35=0|34=74|49=DBL|52=20170824-09:53:34.117|56=BME|10=008|
20170824-09:53:45.181 : 8=FIXT.1.1|9=64|35=0|49=BME|56=DBL|52=20170824-09:53:45.181|34=72|50=TID|57=SID|10=028|
20170824-09:54:04.056 : 8=FIXT.1.1|9=50|35=0|34=75|49=DBL|52=20170824-09:54:04.056|56=BME|10=009|
20170824-09:54:16.208 : 8=FIXT.1.1|9=64|35=0|49=BME|56=DBL|52=20170824-09:54:16.208|34=73|50=TID|57=SID|10=028|
20170824-09:54:34.039 : 8=FIXT.1.1|9=50|35=0|34=76|49=DBL|52=20170824-09:54:34.039|56=BME|10=014|
20170824-09:54:47.236 : 8=FIXT.1.1|9=64|35=0|49=BME|56=DBL|52=20170824-09:54:47.236|34=74|50=TID|57=SID|10=034|
20170824-09:55:05.001 : 8=FIXT.1.1|9=50|35=0|34=77|49=DBL|52=20170824-09:55:05.001|56=BME|10=003|
20170824-09:55:18.265 : 8=FIXT.1.1|9=64|35=0|49=BME|56=DBL|52=20170824-09:55:18.265|34=75|50=TID|57=SID|10=036|
20170824-09:55:35.066 : 8=FIXT.1.1|9=50|35=0|34=78|49=DBL|52=20170824-09:55:35.066|56=BME|10=018|
20170824-09:55:49.295 : 8=FIXT.1.1|9=64|35=0|49=BME|56=DBL|52=20170824-09:55:49.294|34=76|50=TID|57=SID|10=043|
20170824-09:56:05.029 : 8=FIXT.1.1|9=50|35=0|34=79|49=DBL|52=20170824-09:56:05.029|56=BME|10=016|
20170824-09:56:20.321 : 8=FIXT.1.1|9=64|35=0|49=BME|56=DBL|52=20170824-09:56:20.321|34=77|50=TID|57=SID|10=025|
20170824-09:56:35.057 : 8=FIXT.1.1|9=50|35=0|34=80|49=DBL|52=20170824-09:56:35.057|56=BME|10=012|
20170824-09:56:51.351 : 8=FIXT.1.1|9=64|35=0|49=BME|56=DBL|52=20170824-09:56:51.351|34=78|50=TID|57=SID|10=033|
20170824-09:57:05.028 : 8=FIXT.1.1|9=50|35=0|34=81|49=DBL|52=20170824-09:57:05.028|56=BME|10=009|
20170824-09:57:22.377 : 8=FIXT.1.1|9=64|35=0|49=BME|56=DBL|52=20170824-09:57:22.377|34=79|50=TID|57=SID|10=041|
20170824-09:57:35.971 : 8=FIXT.1.1|9=50|35=0|34=82|49=DBL|52=20170824-09:57:35.971|56=BME|10=020|
20170824-09:57:53.403 : 8=FIXT.1.1|9=64|35=0|49=BME|56=DBL|52=20170824-09:57:53.403|34=80|50=TID|57=SID|10=027|
20170824-09:58:05.898 : 8=FIXT.1.1|9=50|35=0|34=83|49=DBL|52=20170824-09:58:05.898|56=BME|10=027|
20170824-09:58:24.432 : 8=FIXT.1.1|9=64|35=0|49=BME|56=DBL|52=20170824-09:58:24.432|34=81|50=TID|57=SID|10=029|
20170824-09:58:35.890 : 8=FIXT.1.1|9=50|35=0|34=84|49=DBL|52=20170824-09:58:35.890|56=BME|10=023|
20170824-09:58:55.459 : 8=FIXT.1.1|9=64|35=0|49=BME|56=DBL|52=20170824-09:58:55.459|34=82|50=TID|57=SID|10=043|
20170824-09:59:05.826 : 8=FIXT.1.1|9=50|35=0|34=85|49=DBL|52=20170824-09:59:05.826|56=BME|10=021|
20170824-09:59:26.482 : 8=FIXT.1.1|9=64|35=0|49=BME|56=DBL|52=20170824-09:59:26.482|34=83|50=TID|57=SID|10=039|
20170824-09:59:35.797 : 8=FIXT.1.1|9=50|35=0|34=86|49=DBL|52=20170824-09:59:35.797|56=BME|10=032|
20170824-09:59:57.513 : 8=FIXT.1.1|9=64|35=0|49=BME|56=DBL|52=20170824-09:59:57.512|34=84|50=TID|57=SID|10=038|
20170824-10:00:05.723 : 8=FIXT.1.1|9=50|35=0|34=87|49=DBL|52=20170824-10:00:05.723|56=BME|10=253|
20170824-10:00:28.540 : 8=FIXT.1.1|9=64|35=0|49=BME|56=DBL|52=20170824-10:00:28.540|34=85|50=TID|57=SID|10=016|
20170824-10:00:35.705 : 8=FIXT.1.1|9=50|35=0|34=88|49=DBL|52=20170824-10:00:35.705|56=BME|10=001|
20170824-10:00:59.568 : 8=FIXT.1.1|9=64|35=0|49=BME|56=DBL|52=20170824-10:00:59.568|34=86|50=TID|57=SID|10=031|
20170824-10:01:05.621 : 8=FIXT.1.1|9=50|35=0|34=89|49=DBL|52=20170824-10:01:05.621|56=BME|10=253|
20170824-10:01:30.593 : 8=FIXT.1.1|9=64|35=0|49=BME|56=DBL|52=20170824-10:01:30.593|34=87|50=TID|57=SID|10=020|
20170824-10:01:35.555 : 8=FIXT.1.1|9=50|35=0|34=90|49=DBL|52=20170824-10:01:35.555|56=BME|10=254|
20170824-10:02:01.619 : 8=FIXT.1.1|9=64|35=0|49=BME|56=DBL|52=20170824-10:02:01.619|34=88|50=TID|57=SID|10=019|
20170824-10:02:05.503 : 8=FIXT.1.1|9=50|35=0|34=91|49=DBL|52=20170824-10:02:05.503|56=BME|10=246|
20170824-10:02:32.649 : 8=FIXT.1.1|9=64|35=0|49=BME|56=DBL|52=20170824-10:02:32.649|34=89|50=TID|57=SID|10=027|
20170824-10:02:35.641 : 8=FIXT.1.1|9=50|35=0|34=92|49=DBL|52=20170824-10:02:35.641|56=BME|10=253|
20170824-10:03:03.677 : 8=FIXT.1.1|9=64|35=0|49=BME|56=DBL|52=20170824-10:03:03.677|34=90|50=TID|57=SID|10=019|
20170824-10:03:05.615 : 8=FIXT.1.1|9=50|35=0|34=93|49=DBL|52=20170824-10:03:05.615|56=BME|10=253|
20170824-10:03:34.702 : 8=FIXT.1.1|9=64|35=0|49=BME|56=DBL|52=20170824-10:03:34.702|34=91|50=TID|57=SID|10=013|
20170824-10:03:35.581 : 8=FIXT.1.1|9=50|35=0|34=94|49=DBL|52=20170824-10:03:35.581|56=BME|10=003|
20170824-10:04:05.509 : 8=FIXT.1.1|9=50|35=0|34=95|49=DBL|52=20170824-10:04:05.509|56=BME|10=002|
20170824-10:04:05.724 : 8=FIXT.1.1|9=64|35=0|49=BME|56=DBL|52=20170824-10:04:05.724|34=92|50=TID|57=SID|10=017|
20170824-10:04:35.490 : 8=FIXT.1.1|9=50|35=0|34=96|49=DBL|52=20170824-10:04:35.490|56=BME|10=005|
20170824-10:04:36.753 : 8=FIXT.1.1|9=64|35=0|49=BME|56=DBL|52=20170824-10:04:36.753|34=93|50=TID|57=SID|10=024|
20170824-10:05:05.488 : 8=FIXT.1.1|9=50|35=0|34=97|49=DBL|52=20170824-10:05:05.488|56=BME|10=011|
20170824-10:05:07.780 : 8=FIXT.1.1|9=64|35=0|49=BME|56=DBL|52=20170824-10:05:07.780|34=94|50=TID|57=SID|10=024|
20170824-10:05:35.459 : 8=FIXT.1.1|9=50|35=0|34=98|49=DBL|52=20170824-10:05:35.459|56=BME|10=013|
